{
	"contracts/Task-1.sol": {
		"Task1": {
			"abi": [
				{
					"inputs": [
						{
							"internalType": "uint256[]",
							"name": "targetArr",
							"type": "uint256[]"
						},
						{
							"internalType": "uint256",
							"name": "num",
							"type": "uint256"
						}
					],
					"name": "findValueFromArr",
					"outputs": [
						{
							"internalType": "uint256",
							"name": "",
							"type": "uint256"
						}
					],
					"stateMutability": "pure",
					"type": "function"
				},
				{
					"inputs": [
						{
							"internalType": "uint256",
							"name": "num",
							"type": "uint256"
						}
					],
					"name": "intToRoman",
					"outputs": [
						{
							"internalType": "string",
							"name": "",
							"type": "string"
						}
					],
					"stateMutability": "pure",
					"type": "function"
				},
				{
					"inputs": [
						{
							"internalType": "uint256[]",
							"name": "a",
							"type": "uint256[]"
						},
						{
							"internalType": "uint256[]",
							"name": "b",
							"type": "uint256[]"
						}
					],
					"name": "mergeSorted",
					"outputs": [
						{
							"internalType": "uint256[]",
							"name": "c",
							"type": "uint256[]"
						}
					],
					"stateMutability": "pure",
					"type": "function"
				},
				{
					"inputs": [
						{
							"internalType": "string",
							"name": "str",
							"type": "string"
						}
					],
					"name": "reverse",
					"outputs": [
						{
							"internalType": "string",
							"name": "",
							"type": "string"
						}
					],
					"stateMutability": "pure",
					"type": "function"
				},
				{
					"inputs": [
						{
							"internalType": "string",
							"name": "romanStr",
							"type": "string"
						}
					],
					"name": "romanToInt",
					"outputs": [
						{
							"internalType": "uint256",
							"name": "",
							"type": "uint256"
						}
					],
					"stateMutability": "pure",
					"type": "function"
				}
			],
			"devdoc": {
				"kind": "dev",
				"methods": {},
				"version": 1
			},
			"evm": {
				"assembly": "    /* \"contracts/Task-1.sol\":61:4356  contract Task1 {... */\n  mstore(0x40, 0x80)\n  callvalue\n  dup1\n  iszero\n  tag_1\n  jumpi\n  revert(0x00, 0x00)\ntag_1:\n  pop\n  dataSize(sub_0)\n  dup1\n  dataOffset(sub_0)\n  0x00\n  codecopy\n  0x00\n  return\nstop\n\nsub_0: assembly {\n        /* \"contracts/Task-1.sol\":61:4356  contract Task1 {... */\n      mstore(0x40, 0x80)\n      callvalue\n      dup1\n      iszero\n      tag_1\n      jumpi\n      revert(0x00, 0x00)\n    tag_1:\n      pop\n      jumpi(tag_2, lt(calldatasize, 0x04))\n      shr(0xe0, calldataload(0x00))\n      dup1\n      0x064767aa\n      eq\n      tag_3\n      jumpi\n      dup1\n      0x0cbc513a\n      eq\n      tag_4\n      jumpi\n      dup1\n      0x31877984\n      eq\n      tag_5\n      jumpi\n      dup1\n      0xcb159dfe\n      eq\n      tag_6\n      jumpi\n      dup1\n      0xd2f145d0\n      eq\n      tag_7\n      jumpi\n    tag_2:\n      revert(0x00, 0x00)\n        /* \"contracts/Task-1.sol\":105:411  function reverse(string memory str) public pure returns (string memory) {... */\n    tag_3:\n      tag_8\n      0x04\n      dup1\n      calldatasize\n      sub\n      dup2\n      add\n      swap1\n      tag_9\n      swap2\n      swap1\n      tag_10\n      jump\t// in\n    tag_9:\n      tag_11\n      jump\t// in\n    tag_8:\n      mload(0x40)\n      tag_12\n      swap2\n      swap1\n      tag_13\n      jump\t// in\n    tag_12:\n      mload(0x40)\n      dup1\n      swap2\n      sub\n      swap1\n      return\n        /* \"contracts/Task-1.sol\":1485:3096  function intToRoman(uint256 num) public pure returns (string memory) {... */\n    tag_4:\n      tag_14\n      0x04\n      dup1\n      calldatasize\n      sub\n      dup2\n      add\n      swap1\n      tag_15\n      swap2\n      swap1\n      tag_16\n      jump\t// in\n    tag_15:\n      tag_17\n      jump\t// in\n    tag_14:\n      mload(0x40)\n      tag_18\n      swap2\n      swap1\n      tag_13\n      jump\t// in\n    tag_18:\n      mload(0x40)\n      dup1\n      swap2\n      sub\n      swap1\n      return\n        /* \"contracts/Task-1.sol\":3863:4354  function findValueFromArr(... */\n    tag_5:\n      tag_19\n      0x04\n      dup1\n      calldatasize\n      sub\n      dup2\n      add\n      swap1\n      tag_20\n      swap2\n      swap1\n      tag_21\n      jump\t// in\n    tag_20:\n      tag_22\n      jump\t// in\n    tag_19:\n      mload(0x40)\n      tag_23\n      swap2\n      swap1\n      tag_24\n      jump\t// in\n    tag_23:\n      mload(0x40)\n      dup1\n      swap2\n      sub\n      swap1\n      return\n        /* \"contracts/Task-1.sol\":446:1076  function romanToInt(string memory romanStr) public pure returns (uint) {... */\n    tag_6:\n      tag_25\n      0x04\n      dup1\n      calldatasize\n      sub\n      dup2\n      add\n      swap1\n      tag_26\n      swap2\n      swap1\n      tag_10\n      jump\t// in\n    tag_26:\n      tag_27\n      jump\t// in\n    tag_25:\n      mload(0x40)\n      tag_28\n      swap2\n      swap1\n      tag_24\n      jump\t// in\n    tag_28:\n      mload(0x40)\n      dup1\n      swap2\n      sub\n      swap1\n      return\n        /* \"contracts/Task-1.sol\":3167:3789  function mergeSorted(... */\n    tag_7:\n      tag_29\n      0x04\n      dup1\n      calldatasize\n      sub\n      dup2\n      add\n      swap1\n      tag_30\n      swap2\n      swap1\n      tag_31\n      jump\t// in\n    tag_30:\n      tag_32\n      jump\t// in\n    tag_29:\n      mload(0x40)\n      tag_33\n      swap2\n      swap1\n      tag_34\n      jump\t// in\n    tag_33:\n      mload(0x40)\n      dup1\n      swap2\n      sub\n      swap1\n      return\n        /* \"contracts/Task-1.sol\":105:411  function reverse(string memory str) public pure returns (string memory) {... */\n    tag_11:\n        /* \"contracts/Task-1.sol\":162:175  string memory */\n      0x60\n        /* \"contracts/Task-1.sol\":187:202  bytes memory b1 */\n      0x00\n        /* \"contracts/Task-1.sol\":211:214  str */\n      dup3\n        /* \"contracts/Task-1.sol\":187:215  bytes memory b1 = bytes(str) */\n      swap1\n      pop\n        /* \"contracts/Task-1.sol\":225:233  uint len */\n      0x00\n        /* \"contracts/Task-1.sol\":236:238  b1 */\n      dup2\n        /* \"contracts/Task-1.sol\":236:245  b1.length */\n      mload\n        /* \"contracts/Task-1.sol\":225:245  uint len = b1.length */\n      swap1\n      pop\n        /* \"contracts/Task-1.sol\":255:270  bytes memory b2 */\n      0x00\n        /* \"contracts/Task-1.sol\":283:286  len */\n      dup2\n        /* \"contracts/Task-1.sol\":273:287  new bytes(len) */\n      0xffffffffffffffff\n      dup2\n      gt\n      iszero\n      tag_36\n      jumpi\n      tag_37\n      tag_38\n      jump\t// in\n    tag_37:\n    tag_36:\n      mload(0x40)\n      swap1\n      dup1\n      dup3\n      mstore\n      dup1\n      0x1f\n      add\n      not(0x1f)\n      and\n      0x20\n      add\n      dup3\n      add\n      0x40\n      mstore\n      dup1\n      iszero\n      tag_39\n      jumpi\n      dup2\n      0x20\n      add\n      0x01\n      dup3\n      mul\n      dup1\n      calldatasize\n      dup4\n      calldatacopy\n      dup1\n      dup3\n      add\n      swap2\n      pop\n      pop\n      swap1\n      pop\n    tag_39:\n      pop\n        /* \"contracts/Task-1.sol\":255:287  bytes memory b2 = new bytes(len) */\n      swap1\n      pop\n        /* \"contracts/Task-1.sol\":303:309  uint i */\n      0x00\n        /* \"contracts/Task-1.sol\":312:313  0 */\n      0x00\n        /* \"contracts/Task-1.sol\":303:313  uint i = 0 */\n      swap1\n      pop\n        /* \"contracts/Task-1.sol\":298:377  for (uint i = 0; i < len; ++i) {... */\n    tag_40:\n        /* \"contracts/Task-1.sol\":319:322  len */\n      dup3\n        /* \"contracts/Task-1.sol\":315:316  i */\n      dup2\n        /* \"contracts/Task-1.sol\":315:322  i < len */\n      lt\n        /* \"contracts/Task-1.sol\":298:377  for (uint i = 0; i < len; ++i) {... */\n      iszero\n      tag_41\n      jumpi\n        /* \"contracts/Task-1.sol\":361:363  b1 */\n      dup4\n        /* \"contracts/Task-1.sol\":364:365  i */\n      dup2\n        /* \"contracts/Task-1.sol\":361:366  b1[i] */\n      dup2\n      mload\n      dup2\n      lt\n      tag_43\n      jumpi\n      tag_44\n      tag_45\n      jump\t// in\n    tag_44:\n    tag_43:\n      0x20\n      add\n      add\n      mload\n      0xf8\n      shr\n      0xf8\n      shl\n        /* \"contracts/Task-1.sol\":343:345  b2 */\n      dup3\n        /* \"contracts/Task-1.sol\":356:357  i */\n      dup3\n        /* \"contracts/Task-1.sol\":352:353  1 */\n      0x01\n        /* \"contracts/Task-1.sol\":346:349  len */\n      dup7\n        /* \"contracts/Task-1.sol\":346:353  len - 1 */\n      tag_46\n      swap2\n      swap1\n      tag_47\n      jump\t// in\n    tag_46:\n        /* \"contracts/Task-1.sol\":346:357  len - 1 - i */\n      tag_48\n      swap2\n      swap1\n      tag_47\n      jump\t// in\n    tag_48:\n        /* \"contracts/Task-1.sol\":343:358  b2[len - 1 - i] */\n      dup2\n      mload\n      dup2\n      lt\n      tag_49\n      jumpi\n      tag_50\n      tag_45\n      jump\t// in\n    tag_50:\n    tag_49:\n      0x20\n      add\n      add\n        /* \"contracts/Task-1.sol\":343:366  b2[len - 1 - i] = b1[i] */\n      swap1\n      not(0xffffffffffffffffffffffffffffffffffffffffffffffffffffffffffffff)\n      and\n      swap1\n      dup2\n      0x00\n      byte\n      swap1\n      mstore8\n      pop\n        /* \"contracts/Task-1.sol\":324:327  ++i */\n      dup1\n      0x01\n      add\n      swap1\n      pop\n        /* \"contracts/Task-1.sol\":298:377  for (uint i = 0; i < len; ++i) {... */\n      jump(tag_40)\n    tag_41:\n      pop\n        /* \"contracts/Task-1.sol\":401:403  b2 */\n      dup1\n        /* \"contracts/Task-1.sol\":387:404  return string(b2) */\n      swap4\n      pop\n      pop\n      pop\n      pop\n        /* \"contracts/Task-1.sol\":105:411  function reverse(string memory str) public pure returns (string memory) {... */\n      swap2\n      swap1\n      pop\n      jump\t// out\n        /* \"contracts/Task-1.sol\":1485:3096  function intToRoman(uint256 num) public pure returns (string memory) {... */\n    tag_17:\n        /* \"contracts/Task-1.sol\":1539:1552  string memory */\n      0x60\n        /* \"contracts/Task-1.sol\":1633:1634  0 */\n      0x00\n        /* \"contracts/Task-1.sol\":1627:1630  num */\n      dup3\n        /* \"contracts/Task-1.sol\":1627:1634  num > 0 */\n      gt\n        /* \"contracts/Task-1.sol\":1627:1649  num > 0 && num <= 3999 */\n      dup1\n      iszero\n      tag_52\n      jumpi\n      pop\n        /* \"contracts/Task-1.sol\":1645:1649  3999 */\n      0x0f9f\n        /* \"contracts/Task-1.sol\":1638:1641  num */\n      dup3\n        /* \"contracts/Task-1.sol\":1638:1649  num <= 3999 */\n      gt\n      iszero\n        /* \"contracts/Task-1.sol\":1627:1649  num > 0 && num <= 3999 */\n    tag_52:\n        /* \"contracts/Task-1.sol\":1619:1687  require(num > 0 && num <= 3999, \"Number must be between 1 and 3999\") */\n      tag_53\n      jumpi\n      mload(0x40)\n      0x08c379a000000000000000000000000000000000000000000000000000000000\n      dup2\n      mstore\n      0x04\n      add\n      tag_54\n      swap1\n      tag_55\n      jump\t// in\n    tag_54:\n      mload(0x40)\n      dup1\n      swap2\n      sub\n      swap1\n      revert\n    tag_53:\n        /* \"contracts/Task-1.sol\":1746:1769  uint256[] memory values */\n      0x00\n        /* \"contracts/Task-1.sol\":1786:1788  13 */\n      0x0d\n        /* \"contracts/Task-1.sol\":1772:1789  new uint256[](13) */\n      0xffffffffffffffff\n      dup2\n      gt\n      iszero\n      tag_56\n      jumpi\n      tag_57\n      tag_38\n      jump\t// in\n    tag_57:\n    tag_56:\n      mload(0x40)\n      swap1\n      dup1\n      dup3\n      mstore\n      dup1\n      0x20\n      mul\n      0x20\n      add\n      dup3\n      add\n      0x40\n      mstore\n      dup1\n      iszero\n      tag_58\n      jumpi\n      dup2\n      0x20\n      add\n      0x20\n      dup3\n      mul\n      dup1\n      calldatasize\n      dup4\n      calldatacopy\n      dup1\n      dup3\n      add\n      swap2\n      pop\n      pop\n      swap1\n      pop\n    tag_58:\n      pop\n        /* \"contracts/Task-1.sol\":1746:1789  uint256[] memory values = new uint256[](13) */\n      swap1\n      pop\n        /* \"contracts/Task-1.sol\":1811:1815  1000 */\n      0x03e8\n        /* \"contracts/Task-1.sol\":1799:1805  values */\n      dup2\n        /* \"contracts/Task-1.sol\":1806:1807  0 */\n      0x00\n        /* \"contracts/Task-1.sol\":1799:1808  values[0] */\n      dup2\n      mload\n      dup2\n      lt\n      tag_59\n      jumpi\n      tag_60\n      tag_45\n      jump\t// in\n    tag_60:\n    tag_59:\n      0x20\n      mul\n      0x20\n      add\n      add\n        /* \"contracts/Task-1.sol\":1799:1815  values[0] = 1000 */\n      dup2\n      dup2\n      mstore\n      pop\n      pop\n        /* \"contracts/Task-1.sol\":1837:1840  900 */\n      0x0384\n        /* \"contracts/Task-1.sol\":1825:1831  values */\n      dup2\n        /* \"contracts/Task-1.sol\":1832:1833  1 */\n      0x01\n        /* \"contracts/Task-1.sol\":1825:1834  values[1] */\n      dup2\n      mload\n      dup2\n      lt\n      tag_61\n      jumpi\n      tag_62\n      tag_45\n      jump\t// in\n    tag_62:\n    tag_61:\n      0x20\n      mul\n      0x20\n      add\n      add\n        /* \"contracts/Task-1.sol\":1825:1840  values[1] = 900 */\n      dup2\n      dup2\n      mstore\n      pop\n      pop\n        /* \"contracts/Task-1.sol\":1862:1865  500 */\n      0x01f4\n        /* \"contracts/Task-1.sol\":1850:1856  values */\n      dup2\n        /* \"contracts/Task-1.sol\":1857:1858  2 */\n      0x02\n        /* \"contracts/Task-1.sol\":1850:1859  values[2] */\n      dup2\n      mload\n      dup2\n      lt\n      tag_63\n      jumpi\n      tag_64\n      tag_45\n      jump\t// in\n    tag_64:\n    tag_63:\n      0x20\n      mul\n      0x20\n      add\n      add\n        /* \"contracts/Task-1.sol\":1850:1865  values[2] = 500 */\n      dup2\n      dup2\n      mstore\n      pop\n      pop\n        /* \"contracts/Task-1.sol\":1887:1890  400 */\n      0x0190\n        /* \"contracts/Task-1.sol\":1875:1881  values */\n      dup2\n        /* \"contracts/Task-1.sol\":1882:1883  3 */\n      0x03\n        /* \"contracts/Task-1.sol\":1875:1884  values[3] */\n      dup2\n      mload\n      dup2\n      lt\n      tag_65\n      jumpi\n      tag_66\n      tag_45\n      jump\t// in\n    tag_66:\n    tag_65:\n      0x20\n      mul\n      0x20\n      add\n      add\n        /* \"contracts/Task-1.sol\":1875:1890  values[3] = 400 */\n      dup2\n      dup2\n      mstore\n      pop\n      pop\n        /* \"contracts/Task-1.sol\":1912:1915  100 */\n      0x64\n        /* \"contracts/Task-1.sol\":1900:1906  values */\n      dup2\n        /* \"contracts/Task-1.sol\":1907:1908  4 */\n      0x04\n        /* \"contracts/Task-1.sol\":1900:1909  values[4] */\n      dup2\n      mload\n      dup2\n      lt\n      tag_67\n      jumpi\n      tag_68\n      tag_45\n      jump\t// in\n    tag_68:\n    tag_67:\n      0x20\n      mul\n      0x20\n      add\n      add\n        /* \"contracts/Task-1.sol\":1900:1915  values[4] = 100 */\n      dup2\n      dup2\n      mstore\n      pop\n      pop\n        /* \"contracts/Task-1.sol\":1937:1939  90 */\n      0x5a\n        /* \"contracts/Task-1.sol\":1925:1931  values */\n      dup2\n        /* \"contracts/Task-1.sol\":1932:1933  5 */\n      0x05\n        /* \"contracts/Task-1.sol\":1925:1934  values[5] */\n      dup2\n      mload\n      dup2\n      lt\n      tag_69\n      jumpi\n      tag_70\n      tag_45\n      jump\t// in\n    tag_70:\n    tag_69:\n      0x20\n      mul\n      0x20\n      add\n      add\n        /* \"contracts/Task-1.sol\":1925:1939  values[5] = 90 */\n      dup2\n      dup2\n      mstore\n      pop\n      pop\n        /* \"contracts/Task-1.sol\":1961:1963  50 */\n      0x32\n        /* \"contracts/Task-1.sol\":1949:1955  values */\n      dup2\n        /* \"contracts/Task-1.sol\":1956:1957  6 */\n      0x06\n        /* \"contracts/Task-1.sol\":1949:1958  values[6] */\n      dup2\n      mload\n      dup2\n      lt\n      tag_71\n      jumpi\n      tag_72\n      tag_45\n      jump\t// in\n    tag_72:\n    tag_71:\n      0x20\n      mul\n      0x20\n      add\n      add\n        /* \"contracts/Task-1.sol\":1949:1963  values[6] = 50 */\n      dup2\n      dup2\n      mstore\n      pop\n      pop\n        /* \"contracts/Task-1.sol\":1985:1987  40 */\n      0x28\n        /* \"contracts/Task-1.sol\":1973:1979  values */\n      dup2\n        /* \"contracts/Task-1.sol\":1980:1981  7 */\n      0x07\n        /* \"contracts/Task-1.sol\":1973:1982  values[7] */\n      dup2\n      mload\n      dup2\n      lt\n      tag_73\n      jumpi\n      tag_74\n      tag_45\n      jump\t// in\n    tag_74:\n    tag_73:\n      0x20\n      mul\n      0x20\n      add\n      add\n        /* \"contracts/Task-1.sol\":1973:1987  values[7] = 40 */\n      dup2\n      dup2\n      mstore\n      pop\n      pop\n        /* \"contracts/Task-1.sol\":2009:2011  10 */\n      0x0a\n        /* \"contracts/Task-1.sol\":1997:2003  values */\n      dup2\n        /* \"contracts/Task-1.sol\":2004:2005  8 */\n      0x08\n        /* \"contracts/Task-1.sol\":1997:2006  values[8] */\n      dup2\n      mload\n      dup2\n      lt\n      tag_75\n      jumpi\n      tag_76\n      tag_45\n      jump\t// in\n    tag_76:\n    tag_75:\n      0x20\n      mul\n      0x20\n      add\n      add\n        /* \"contracts/Task-1.sol\":1997:2011  values[8] = 10 */\n      dup2\n      dup2\n      mstore\n      pop\n      pop\n        /* \"contracts/Task-1.sol\":2033:2034  9 */\n      0x09\n        /* \"contracts/Task-1.sol\":2021:2027  values */\n      dup2\n        /* \"contracts/Task-1.sol\":2028:2029  9 */\n      0x09\n        /* \"contracts/Task-1.sol\":2021:2030  values[9] */\n      dup2\n      mload\n      dup2\n      lt\n      tag_77\n      jumpi\n      tag_78\n      tag_45\n      jump\t// in\n    tag_78:\n    tag_77:\n      0x20\n      mul\n      0x20\n      add\n      add\n        /* \"contracts/Task-1.sol\":2021:2034  values[9] = 9 */\n      dup2\n      dup2\n      mstore\n      pop\n      pop\n        /* \"contracts/Task-1.sol\":2057:2058  5 */\n      0x05\n        /* \"contracts/Task-1.sol\":2044:2050  values */\n      dup2\n        /* \"contracts/Task-1.sol\":2051:2053  10 */\n      0x0a\n        /* \"contracts/Task-1.sol\":2044:2054  values[10] */\n      dup2\n      mload\n      dup2\n      lt\n      tag_79\n      jumpi\n      tag_80\n      tag_45\n      jump\t// in\n    tag_80:\n    tag_79:\n      0x20\n      mul\n      0x20\n      add\n      add\n        /* \"contracts/Task-1.sol\":2044:2058  values[10] = 5 */\n      dup2\n      dup2\n      mstore\n      pop\n      pop\n        /* \"contracts/Task-1.sol\":2081:2082  4 */\n      0x04\n        /* \"contracts/Task-1.sol\":2068:2074  values */\n      dup2\n        /* \"contracts/Task-1.sol\":2075:2077  11 */\n      0x0b\n        /* \"contracts/Task-1.sol\":2068:2078  values[11] */\n      dup2\n      mload\n      dup2\n      lt\n      tag_81\n      jumpi\n      tag_82\n      tag_45\n      jump\t// in\n    tag_82:\n    tag_81:\n      0x20\n      mul\n      0x20\n      add\n      add\n        /* \"contracts/Task-1.sol\":2068:2082  values[11] = 4 */\n      dup2\n      dup2\n      mstore\n      pop\n      pop\n        /* \"contracts/Task-1.sol\":2105:2106  1 */\n      0x01\n        /* \"contracts/Task-1.sol\":2092:2098  values */\n      dup2\n        /* \"contracts/Task-1.sol\":2099:2101  12 */\n      0x0c\n        /* \"contracts/Task-1.sol\":2092:2102  values[12] */\n      dup2\n      mload\n      dup2\n      lt\n      tag_83\n      jumpi\n      tag_84\n      tag_45\n      jump\t// in\n    tag_84:\n    tag_83:\n      0x20\n      mul\n      0x20\n      add\n      add\n        /* \"contracts/Task-1.sol\":2092:2106  values[12] = 1 */\n      dup2\n      dup2\n      mstore\n      pop\n      pop\n        /* \"contracts/Task-1.sol\":2159:2182  string[] memory symbols */\n      0x00\n        /* \"contracts/Task-1.sol\":2198:2200  13 */\n      0x0d\n        /* \"contracts/Task-1.sol\":2185:2201  new string[](13) */\n      0xffffffffffffffff\n      dup2\n      gt\n      iszero\n      tag_85\n      jumpi\n      tag_86\n      tag_38\n      jump\t// in\n    tag_86:\n    tag_85:\n      mload(0x40)\n      swap1\n      dup1\n      dup3\n      mstore\n      dup1\n      0x20\n      mul\n      0x20\n      add\n      dup3\n      add\n      0x40\n      mstore\n      dup1\n      iszero\n      tag_87\n      jumpi\n      dup2\n      0x20\n      add\n    tag_88:\n      0x60\n      dup2\n      mstore\n      0x20\n      add\n      swap1\n      0x01\n      swap1\n      sub\n      swap1\n      dup2\n      tag_88\n      jumpi\n      swap1\n      pop\n    tag_87:\n      pop\n        /* \"contracts/Task-1.sol\":2159:2201  string[] memory symbols = new string[](13) */\n      swap1\n      pop\n        /* \"contracts/Task-1.sol\":2211:2227  symbols[0] = \"M\" */\n      mload(0x40)\n      dup1\n      0x40\n      add\n      0x40\n      mstore\n      dup1\n      0x01\n      dup2\n      mstore\n      0x20\n      add\n      0x4d00000000000000000000000000000000000000000000000000000000000000\n      dup2\n      mstore\n      pop\n        /* \"contracts/Task-1.sol\":2211:2218  symbols */\n      dup2\n        /* \"contracts/Task-1.sol\":2219:2220  0 */\n      0x00\n        /* \"contracts/Task-1.sol\":2211:2221  symbols[0] */\n      dup2\n      mload\n      dup2\n      lt\n      tag_89\n      jumpi\n      tag_90\n      tag_45\n      jump\t// in\n    tag_90:\n    tag_89:\n      0x20\n      mul\n      0x20\n      add\n      add\n        /* \"contracts/Task-1.sol\":2211:2227  symbols[0] = \"M\" */\n      dup2\n      swap1\n      mstore\n      pop\n        /* \"contracts/Task-1.sol\":2237:2254  symbols[1] = \"CM\" */\n      mload(0x40)\n      dup1\n      0x40\n      add\n      0x40\n      mstore\n      dup1\n      0x02\n      dup2\n      mstore\n      0x20\n      add\n      0x434d000000000000000000000000000000000000000000000000000000000000\n      dup2\n      mstore\n      pop\n        /* \"contracts/Task-1.sol\":2237:2244  symbols */\n      dup2\n        /* \"contracts/Task-1.sol\":2245:2246  1 */\n      0x01\n        /* \"contracts/Task-1.sol\":2237:2247  symbols[1] */\n      dup2\n      mload\n      dup2\n      lt\n      tag_91\n      jumpi\n      tag_92\n      tag_45\n      jump\t// in\n    tag_92:\n    tag_91:\n      0x20\n      mul\n      0x20\n      add\n      add\n        /* \"contracts/Task-1.sol\":2237:2254  symbols[1] = \"CM\" */\n      dup2\n      swap1\n      mstore\n      pop\n        /* \"contracts/Task-1.sol\":2264:2280  symbols[2] = \"D\" */\n      mload(0x40)\n      dup1\n      0x40\n      add\n      0x40\n      mstore\n      dup1\n      0x01\n      dup2\n      mstore\n      0x20\n      add\n      0x4400000000000000000000000000000000000000000000000000000000000000\n      dup2\n      mstore\n      pop\n        /* \"contracts/Task-1.sol\":2264:2271  symbols */\n      dup2\n        /* \"contracts/Task-1.sol\":2272:2273  2 */\n      0x02\n        /* \"contracts/Task-1.sol\":2264:2274  symbols[2] */\n      dup2\n      mload\n      dup2\n      lt\n      tag_93\n      jumpi\n      tag_94\n      tag_45\n      jump\t// in\n    tag_94:\n    tag_93:\n      0x20\n      mul\n      0x20\n      add\n      add\n        /* \"contracts/Task-1.sol\":2264:2280  symbols[2] = \"D\" */\n      dup2\n      swap1\n      mstore\n      pop\n        /* \"contracts/Task-1.sol\":2290:2307  symbols[3] = \"CD\" */\n      mload(0x40)\n      dup1\n      0x40\n      add\n      0x40\n      mstore\n      dup1\n      0x02\n      dup2\n      mstore\n      0x20\n      add\n      0x4344000000000000000000000000000000000000000000000000000000000000\n      dup2\n      mstore\n      pop\n        /* \"contracts/Task-1.sol\":2290:2297  symbols */\n      dup2\n        /* \"contracts/Task-1.sol\":2298:2299  3 */\n      0x03\n        /* \"contracts/Task-1.sol\":2290:2300  symbols[3] */\n      dup2\n      mload\n      dup2\n      lt\n      tag_95\n      jumpi\n      tag_96\n      tag_45\n      jump\t// in\n    tag_96:\n    tag_95:\n      0x20\n      mul\n      0x20\n      add\n      add\n        /* \"contracts/Task-1.sol\":2290:2307  symbols[3] = \"CD\" */\n      dup2\n      swap1\n      mstore\n      pop\n        /* \"contracts/Task-1.sol\":2317:2333  symbols[4] = \"C\" */\n      mload(0x40)\n      dup1\n      0x40\n      add\n      0x40\n      mstore\n      dup1\n      0x01\n      dup2\n      mstore\n      0x20\n      add\n      0x4300000000000000000000000000000000000000000000000000000000000000\n      dup2\n      mstore\n      pop\n        /* \"contracts/Task-1.sol\":2317:2324  symbols */\n      dup2\n        /* \"contracts/Task-1.sol\":2325:2326  4 */\n      0x04\n        /* \"contracts/Task-1.sol\":2317:2327  symbols[4] */\n      dup2\n      mload\n      dup2\n      lt\n      tag_97\n      jumpi\n      tag_98\n      tag_45\n      jump\t// in\n    tag_98:\n    tag_97:\n      0x20\n      mul\n      0x20\n      add\n      add\n        /* \"contracts/Task-1.sol\":2317:2333  symbols[4] = \"C\" */\n      dup2\n      swap1\n      mstore\n      pop\n        /* \"contracts/Task-1.sol\":2343:2360  symbols[5] = \"XC\" */\n      mload(0x40)\n      dup1\n      0x40\n      add\n      0x40\n      mstore\n      dup1\n      0x02\n      dup2\n      mstore\n      0x20\n      add\n      0x5843000000000000000000000000000000000000000000000000000000000000\n      dup2\n      mstore\n      pop\n        /* \"contracts/Task-1.sol\":2343:2350  symbols */\n      dup2\n        /* \"contracts/Task-1.sol\":2351:2352  5 */\n      0x05\n        /* \"contracts/Task-1.sol\":2343:2353  symbols[5] */\n      dup2\n      mload\n      dup2\n      lt\n      tag_99\n      jumpi\n      tag_100\n      tag_45\n      jump\t// in\n    tag_100:\n    tag_99:\n      0x20\n      mul\n      0x20\n      add\n      add\n        /* \"contracts/Task-1.sol\":2343:2360  symbols[5] = \"XC\" */\n      dup2\n      swap1\n      mstore\n      pop\n        /* \"contracts/Task-1.sol\":2370:2386  symbols[6] = \"L\" */\n      mload(0x40)\n      dup1\n      0x40\n      add\n      0x40\n      mstore\n      dup1\n      0x01\n      dup2\n      mstore\n      0x20\n      add\n      0x4c00000000000000000000000000000000000000000000000000000000000000\n      dup2\n      mstore\n      pop\n        /* \"contracts/Task-1.sol\":2370:2377  symbols */\n      dup2\n        /* \"contracts/Task-1.sol\":2378:2379  6 */\n      0x06\n        /* \"contracts/Task-1.sol\":2370:2380  symbols[6] */\n      dup2\n      mload\n      dup2\n      lt\n      tag_101\n      jumpi\n      tag_102\n      tag_45\n      jump\t// in\n    tag_102:\n    tag_101:\n      0x20\n      mul\n      0x20\n      add\n      add\n        /* \"contracts/Task-1.sol\":2370:2386  symbols[6] = \"L\" */\n      dup2\n      swap1\n      mstore\n      pop\n        /* \"contracts/Task-1.sol\":2396:2413  symbols[7] = \"XL\" */\n      mload(0x40)\n      dup1\n      0x40\n      add\n      0x40\n      mstore\n      dup1\n      0x02\n      dup2\n      mstore\n      0x20\n      add\n      0x584c000000000000000000000000000000000000000000000000000000000000\n      dup2\n      mstore\n      pop\n        /* \"contracts/Task-1.sol\":2396:2403  symbols */\n      dup2\n        /* \"contracts/Task-1.sol\":2404:2405  7 */\n      0x07\n        /* \"contracts/Task-1.sol\":2396:2406  symbols[7] */\n      dup2\n      mload\n      dup2\n      lt\n      tag_103\n      jumpi\n      tag_104\n      tag_45\n      jump\t// in\n    tag_104:\n    tag_103:\n      0x20\n      mul\n      0x20\n      add\n      add\n        /* \"contracts/Task-1.sol\":2396:2413  symbols[7] = \"XL\" */\n      dup2\n      swap1\n      mstore\n      pop\n        /* \"contracts/Task-1.sol\":2423:2439  symbols[8] = \"X\" */\n      mload(0x40)\n      dup1\n      0x40\n      add\n      0x40\n      mstore\n      dup1\n      0x01\n      dup2\n      mstore\n      0x20\n      add\n      0x5800000000000000000000000000000000000000000000000000000000000000\n      dup2\n      mstore\n      pop\n        /* \"contracts/Task-1.sol\":2423:2430  symbols */\n      dup2\n        /* \"contracts/Task-1.sol\":2431:2432  8 */\n      0x08\n        /* \"contracts/Task-1.sol\":2423:2433  symbols[8] */\n      dup2\n      mload\n      dup2\n      lt\n      tag_105\n      jumpi\n      tag_106\n      tag_45\n      jump\t// in\n    tag_106:\n    tag_105:\n      0x20\n      mul\n      0x20\n      add\n      add\n        /* \"contracts/Task-1.sol\":2423:2439  symbols[8] = \"X\" */\n      dup2\n      swap1\n      mstore\n      pop\n        /* \"contracts/Task-1.sol\":2449:2466  symbols[9] = \"IX\" */\n      mload(0x40)\n      dup1\n      0x40\n      add\n      0x40\n      mstore\n      dup1\n      0x02\n      dup2\n      mstore\n      0x20\n      add\n      0x4958000000000000000000000000000000000000000000000000000000000000\n      dup2\n      mstore\n      pop\n        /* \"contracts/Task-1.sol\":2449:2456  symbols */\n      dup2\n        /* \"contracts/Task-1.sol\":2457:2458  9 */\n      0x09\n        /* \"contracts/Task-1.sol\":2449:2459  symbols[9] */\n      dup2\n      mload\n      dup2\n      lt\n      tag_107\n      jumpi\n      tag_108\n      tag_45\n      jump\t// in\n    tag_108:\n    tag_107:\n      0x20\n      mul\n      0x20\n      add\n      add\n        /* \"contracts/Task-1.sol\":2449:2466  symbols[9] = \"IX\" */\n      dup2\n      swap1\n      mstore\n      pop\n        /* \"contracts/Task-1.sol\":2476:2493  symbols[10] = \"V\" */\n      mload(0x40)\n      dup1\n      0x40\n      add\n      0x40\n      mstore\n      dup1\n      0x01\n      dup2\n      mstore\n      0x20\n      add\n      0x5600000000000000000000000000000000000000000000000000000000000000\n      dup2\n      mstore\n      pop\n        /* \"contracts/Task-1.sol\":2476:2483  symbols */\n      dup2\n        /* \"contracts/Task-1.sol\":2484:2486  10 */\n      0x0a\n        /* \"contracts/Task-1.sol\":2476:2487  symbols[10] */\n      dup2\n      mload\n      dup2\n      lt\n      tag_109\n      jumpi\n      tag_110\n      tag_45\n      jump\t// in\n    tag_110:\n    tag_109:\n      0x20\n      mul\n      0x20\n      add\n      add\n        /* \"contracts/Task-1.sol\":2476:2493  symbols[10] = \"V\" */\n      dup2\n      swap1\n      mstore\n      pop\n        /* \"contracts/Task-1.sol\":2503:2521  symbols[11] = \"IV\" */\n      mload(0x40)\n      dup1\n      0x40\n      add\n      0x40\n      mstore\n      dup1\n      0x02\n      dup2\n      mstore\n      0x20\n      add\n      0x4956000000000000000000000000000000000000000000000000000000000000\n      dup2\n      mstore\n      pop\n        /* \"contracts/Task-1.sol\":2503:2510  symbols */\n      dup2\n        /* \"contracts/Task-1.sol\":2511:2513  11 */\n      0x0b\n        /* \"contracts/Task-1.sol\":2503:2514  symbols[11] */\n      dup2\n      mload\n      dup2\n      lt\n      tag_111\n      jumpi\n      tag_112\n      tag_45\n      jump\t// in\n    tag_112:\n    tag_111:\n      0x20\n      mul\n      0x20\n      add\n      add\n        /* \"contracts/Task-1.sol\":2503:2521  symbols[11] = \"IV\" */\n      dup2\n      swap1\n      mstore\n      pop\n        /* \"contracts/Task-1.sol\":2531:2548  symbols[12] = \"I\" */\n      mload(0x40)\n      dup1\n      0x40\n      add\n      0x40\n      mstore\n      dup1\n      0x01\n      dup2\n      mstore\n      0x20\n      add\n      0x4900000000000000000000000000000000000000000000000000000000000000\n      dup2\n      mstore\n      pop\n        /* \"contracts/Task-1.sol\":2531:2538  symbols */\n      dup2\n        /* \"contracts/Task-1.sol\":2539:2541  12 */\n      0x0c\n        /* \"contracts/Task-1.sol\":2531:2542  symbols[12] */\n      dup2\n      mload\n      dup2\n      lt\n      tag_113\n      jumpi\n      tag_114\n      tag_45\n      jump\t// in\n    tag_114:\n    tag_113:\n      0x20\n      mul\n      0x20\n      add\n      add\n        /* \"contracts/Task-1.sol\":2531:2548  symbols[12] = \"I\" */\n      dup2\n      swap1\n      mstore\n      pop\n        /* \"contracts/Task-1.sol\":2559:2579  string memory result */\n      0x00\n        /* \"contracts/Task-1.sol\":2559:2584  string memory result = \"\" */\n      mload(0x40)\n      dup1\n      0x20\n      add\n      0x40\n      mstore\n      dup1\n      0x00\n      dup2\n      mstore\n      pop\n      swap1\n      pop\n        /* \"contracts/Task-1.sol\":2642:2651  uint256 i */\n      0x00\n        /* \"contracts/Task-1.sol\":2654:2655  0 */\n      0x00\n        /* \"contracts/Task-1.sol\":2642:2655  uint256 i = 0 */\n      swap1\n      pop\n        /* \"contracts/Task-1.sol\":2637:3066  for (uint256 i = 0; i < values.length; i++) {... */\n    tag_115:\n        /* \"contracts/Task-1.sol\":2661:2667  values */\n      dup4\n        /* \"contracts/Task-1.sol\":2661:2674  values.length */\n      mload\n        /* \"contracts/Task-1.sol\":2657:2658  i */\n      dup2\n        /* \"contracts/Task-1.sol\":2657:2674  i < values.length */\n      lt\n        /* \"contracts/Task-1.sol\":2637:3066  for (uint256 i = 0; i < values.length; i++) {... */\n      iszero\n      tag_116\n      jumpi\n        /* \"contracts/Task-1.sol\":2783:2928  while (values[i] <= num) {... */\n    tag_118:\n        /* \"contracts/Task-1.sol\":2803:2806  num */\n      dup6\n        /* \"contracts/Task-1.sol\":2790:2796  values */\n      dup5\n        /* \"contracts/Task-1.sol\":2797:2798  i */\n      dup3\n        /* \"contracts/Task-1.sol\":2790:2799  values[i] */\n      dup2\n      mload\n      dup2\n      lt\n      tag_120\n      jumpi\n      tag_121\n      tag_45\n      jump\t// in\n    tag_121:\n    tag_120:\n      0x20\n      mul\n      0x20\n      add\n      add\n      mload\n        /* \"contracts/Task-1.sol\":2790:2806  values[i] <= num */\n      gt\n        /* \"contracts/Task-1.sol\":2783:2928  while (values[i] <= num) {... */\n      tag_119\n      jumpi\n        /* \"contracts/Task-1.sol\":2859:2865  result */\n      dup2\n        /* \"contracts/Task-1.sol\":2867:2874  symbols */\n      dup4\n        /* \"contracts/Task-1.sol\":2875:2876  i */\n      dup3\n        /* \"contracts/Task-1.sol\":2867:2877  symbols[i] */\n      dup2\n      mload\n      dup2\n      lt\n      tag_122\n      jumpi\n      tag_123\n      tag_45\n      jump\t// in\n    tag_123:\n    tag_122:\n      0x20\n      mul\n      0x20\n      add\n      add\n      mload\n        /* \"contracts/Task-1.sol\":2842:2878  abi.encodePacked(result, symbols[i]) */\n      add(0x20, mload(0x40))\n      tag_124\n      swap3\n      swap2\n      swap1\n      tag_125\n      jump\t// in\n    tag_124:\n      mload(0x40)\n      0x20\n      dup2\n      dup4\n      sub\n      sub\n      dup2\n      mstore\n      swap1\n      0x40\n      mstore\n        /* \"contracts/Task-1.sol\":2826:2879  result = string(abi.encodePacked(result, symbols[i])) */\n      swap2\n      pop\n        /* \"contracts/Task-1.sol\":2904:2910  values */\n      dup4\n        /* \"contracts/Task-1.sol\":2911:2912  i */\n      dup2\n        /* \"contracts/Task-1.sol\":2904:2913  values[i] */\n      dup2\n      mload\n      dup2\n      lt\n      tag_126\n      jumpi\n      tag_127\n      tag_45\n      jump\t// in\n    tag_127:\n    tag_126:\n      0x20\n      mul\n      0x20\n      add\n      add\n      mload\n        /* \"contracts/Task-1.sol\":2897:2913  num -= values[i] */\n      dup7\n      tag_128\n      swap2\n      swap1\n      tag_47\n      jump\t// in\n    tag_128:\n      swap6\n      pop\n        /* \"contracts/Task-1.sol\":2783:2928  while (values[i] <= num) {... */\n      jump(tag_118)\n    tag_119:\n        /* \"contracts/Task-1.sol\":3015:3016  0 */\n      0x00\n        /* \"contracts/Task-1.sol\":3008:3011  num */\n      dup7\n        /* \"contracts/Task-1.sol\":3008:3016  num == 0 */\n      sub\n        /* \"contracts/Task-1.sol\":3004:3056  if (num == 0) {... */\n      iszero\n        /* \"contracts/Task-1.sol\":3036:3041  break */\n      tag_116\n        /* \"contracts/Task-1.sol\":3004:3056  if (num == 0) {... */\n      jumpi\n        /* \"contracts/Task-1.sol\":2676:2679  i++ */\n      dup1\n      dup1\n      0x01\n      add\n      swap2\n      pop\n      pop\n        /* \"contracts/Task-1.sol\":2637:3066  for (uint256 i = 0; i < values.length; i++) {... */\n      jump(tag_115)\n    tag_116:\n      pop\n        /* \"contracts/Task-1.sol\":3083:3089  result */\n      dup1\n        /* \"contracts/Task-1.sol\":3076:3089  return result */\n      swap4\n      pop\n      pop\n      pop\n      pop\n        /* \"contracts/Task-1.sol\":1485:3096  function intToRoman(uint256 num) public pure returns (string memory) {... */\n      swap2\n      swap1\n      pop\n      jump\t// out\n        /* \"contracts/Task-1.sol\":3863:4354  function findValueFromArr(... */\n    tag_22:\n        /* \"contracts/Task-1.sol\":3973:3980  uint256 */\n      0x00\n        /* \"contracts/Task-1.sol\":3992:4002  uint256 lo */\n      0x00\n        /* \"contracts/Task-1.sol\":4005:4006  0 */\n      0x00\n        /* \"contracts/Task-1.sol\":3992:4006  uint256 lo = 0 */\n      swap1\n      pop\n        /* \"contracts/Task-1.sol\":4016:4026  uint256 hi */\n      0x00\n        /* \"contracts/Task-1.sol\":4029:4038  targetArr */\n      dup5\n        /* \"contracts/Task-1.sol\":4029:4045  targetArr.length */\n      mload\n        /* \"contracts/Task-1.sol\":4016:4045  uint256 hi = targetArr.length */\n      swap1\n      pop\n        /* \"contracts/Task-1.sol\":4055:4244  while (lo < hi) {... */\n    tag_131:\n        /* \"contracts/Task-1.sol\":4067:4069  hi */\n      dup1\n        /* \"contracts/Task-1.sol\":4062:4064  lo */\n      dup3\n        /* \"contracts/Task-1.sol\":4062:4069  lo < hi */\n      lt\n        /* \"contracts/Task-1.sol\":4055:4244  while (lo < hi) {... */\n      iszero\n      tag_132\n      jumpi\n        /* \"contracts/Task-1.sol\":4085:4096  uint256 mid */\n      0x00\n        /* \"contracts/Task-1.sol\":4112:4113  1 */\n      0x01\n        /* \"contracts/Task-1.sol\":4105:4107  hi */\n      dup3\n        /* \"contracts/Task-1.sol\":4100:4102  lo */\n      dup5\n        /* \"contracts/Task-1.sol\":4100:4107  lo + hi */\n      tag_133\n      swap2\n      swap1\n      tag_134\n      jump\t// in\n    tag_133:\n        /* \"contracts/Task-1.sol\":4099:4113  (lo + hi) >> 1 */\n      swap1\n      shr\n        /* \"contracts/Task-1.sol\":4085:4113  uint256 mid = (lo + hi) >> 1 */\n      swap1\n      pop\n        /* \"contracts/Task-1.sol\":4148:4151  num */\n      dup5\n        /* \"contracts/Task-1.sol\":4131:4140  targetArr */\n      dup7\n        /* \"contracts/Task-1.sol\":4141:4144  mid */\n      dup3\n        /* \"contracts/Task-1.sol\":4131:4145  targetArr[mid] */\n      dup2\n      mload\n      dup2\n      lt\n      tag_135\n      jumpi\n      tag_136\n      tag_45\n      jump\t// in\n    tag_136:\n    tag_135:\n      0x20\n      mul\n      0x20\n      add\n      add\n      mload\n        /* \"contracts/Task-1.sol\":4131:4151  targetArr[mid] > num */\n      gt\n        /* \"contracts/Task-1.sol\":4127:4233  if (targetArr[mid] > num)... */\n      iszero\n      tag_137\n      jumpi\n        /* \"contracts/Task-1.sol\":4180:4181  1 */\n      0x01\n        /* \"contracts/Task-1.sol\":4174:4177  mid */\n      dup2\n        /* \"contracts/Task-1.sol\":4174:4181  mid + 1 */\n      tag_138\n      swap2\n      swap1\n      tag_134\n      jump\t// in\n    tag_138:\n        /* \"contracts/Task-1.sol\":4169:4181  lo = mid + 1 */\n      swap3\n      pop\n        /* \"contracts/Task-1.sol\":4127:4233  if (targetArr[mid] > num)... */\n      jump(tag_139)\n    tag_137:\n        /* \"contracts/Task-1.sol\":4230:4233  mid */\n      dup1\n        /* \"contracts/Task-1.sol\":4225:4233  hi = mid */\n      swap2\n      pop\n        /* \"contracts/Task-1.sol\":4127:4233  if (targetArr[mid] > num)... */\n    tag_139:\n        /* \"contracts/Task-1.sol\":4071:4244  {... */\n      pop\n        /* \"contracts/Task-1.sol\":4055:4244  while (lo < hi) {... */\n      jump(tag_131)\n    tag_132:\n        /* \"contracts/Task-1.sol\":4262:4271  targetArr */\n      dup5\n        /* \"contracts/Task-1.sol\":4262:4278  targetArr.length */\n      mload\n        /* \"contracts/Task-1.sol\":4257:4259  lo */\n      dup3\n        /* \"contracts/Task-1.sol\":4257:4278  lo < targetArr.length */\n      lt\n        /* \"contracts/Task-1.sol\":4257:4302  lo < targetArr.length && targetArr[lo] == num */\n      dup1\n      iszero\n      tag_140\n      jumpi\n      pop\n        /* \"contracts/Task-1.sol\":4299:4302  num */\n      dup4\n        /* \"contracts/Task-1.sol\":4282:4291  targetArr */\n      dup6\n        /* \"contracts/Task-1.sol\":4292:4294  lo */\n      dup4\n        /* \"contracts/Task-1.sol\":4282:4295  targetArr[lo] */\n      dup2\n      mload\n      dup2\n      lt\n      tag_141\n      jumpi\n      tag_142\n      tag_45\n      jump\t// in\n    tag_142:\n    tag_141:\n      0x20\n      mul\n      0x20\n      add\n      add\n      mload\n        /* \"contracts/Task-1.sol\":4282:4302  targetArr[lo] == num */\n      eq\n        /* \"contracts/Task-1.sol\":4257:4302  lo < targetArr.length && targetArr[lo] == num */\n    tag_140:\n        /* \"contracts/Task-1.sol\":4253:4313  if (lo < targetArr.length && targetArr[lo] == num) return lo */\n      iszero\n      tag_143\n      jumpi\n        /* \"contracts/Task-1.sol\":4311:4313  lo */\n      dup2\n        /* \"contracts/Task-1.sol\":4304:4313  return lo */\n      swap3\n      pop\n      pop\n      pop\n      jump(tag_130)\n        /* \"contracts/Task-1.sol\":4253:4313  if (lo < targetArr.length && targetArr[lo] == num) return lo */\n    tag_143:\n        /* \"contracts/Task-1.sol\":4330:4347  type(uint256).max */\n      0xffffffffffffffffffffffffffffffffffffffffffffffffffffffffffffffff\n        /* \"contracts/Task-1.sol\":4323:4347  return type(uint256).max */\n      swap3\n      pop\n      pop\n      pop\n        /* \"contracts/Task-1.sol\":3863:4354  function findValueFromArr(... */\n    tag_130:\n      swap3\n      swap2\n      pop\n      pop\n      jump\t// out\n        /* \"contracts/Task-1.sol\":446:1076  function romanToInt(string memory romanStr) public pure returns (uint) {... */\n    tag_27:\n        /* \"contracts/Task-1.sol\":511:515  uint */\n      0x00\n        /* \"contracts/Task-1.sol\":527:538  uint result */\n      0x00\n        /* \"contracts/Task-1.sol\":548:557  uint prev */\n      0x00\n        /* \"contracts/Task-1.sol\":560:561  0 */\n      0x00\n        /* \"contracts/Task-1.sol\":548:561  uint prev = 0 */\n      swap1\n      pop\n        /* \"contracts/Task-1.sol\":572:590  string memory keys */\n      0x00\n        /* \"contracts/Task-1.sol\":572:602  string memory keys = \"CDILMVX\" */\n      mload(0x40)\n      dup1\n      0x40\n      add\n      0x40\n      mstore\n      dup1\n      0x07\n      dup2\n      mstore\n      0x20\n      add\n      0x4344494c4d565800000000000000000000000000000000000000000000000000\n      dup2\n      mstore\n      pop\n      swap1\n      pop\n        /* \"contracts/Task-1.sol\":612:635  uint16[7] memory values */\n      0x00\n        /* \"contracts/Task-1.sol\":612:668  uint16[7] memory values = [100, 500, 1, 50, 1000, 5, 10] */\n      mload(0x40)\n      dup1\n      0xe0\n      add\n      0x40\n      mstore\n      dup1\n        /* \"contracts/Task-1.sol\":639:642  100 */\n      0x64\n        /* \"contracts/Task-1.sol\":612:668  uint16[7] memory values = [100, 500, 1, 50, 1000, 5, 10] */\n      0xffff\n      and\n      dup2\n      mstore\n      0x20\n      add\n        /* \"contracts/Task-1.sol\":644:647  500 */\n      0x01f4\n        /* \"contracts/Task-1.sol\":612:668  uint16[7] memory values = [100, 500, 1, 50, 1000, 5, 10] */\n      0xffff\n      and\n      dup2\n      mstore\n      0x20\n      add\n        /* \"contracts/Task-1.sol\":649:650  1 */\n      0x01\n        /* \"contracts/Task-1.sol\":612:668  uint16[7] memory values = [100, 500, 1, 50, 1000, 5, 10] */\n      0xffff\n      and\n      dup2\n      mstore\n      0x20\n      add\n        /* \"contracts/Task-1.sol\":652:654  50 */\n      0x32\n        /* \"contracts/Task-1.sol\":612:668  uint16[7] memory values = [100, 500, 1, 50, 1000, 5, 10] */\n      0xffff\n      and\n      dup2\n      mstore\n      0x20\n      add\n        /* \"contracts/Task-1.sol\":656:660  1000 */\n      0x03e8\n        /* \"contracts/Task-1.sol\":612:668  uint16[7] memory values = [100, 500, 1, 50, 1000, 5, 10] */\n      0xffff\n      and\n      dup2\n      mstore\n      0x20\n      add\n        /* \"contracts/Task-1.sol\":662:663  5 */\n      0x05\n        /* \"contracts/Task-1.sol\":612:668  uint16[7] memory values = [100, 500, 1, 50, 1000, 5, 10] */\n      0xffff\n      and\n      dup2\n      mstore\n      0x20\n      add\n        /* \"contracts/Task-1.sol\":665:667  10 */\n      0x0a\n        /* \"contracts/Task-1.sol\":612:668  uint16[7] memory values = [100, 500, 1, 50, 1000, 5, 10] */\n      0xffff\n      and\n      dup2\n      mstore\n      pop\n      swap1\n      pop\n        /* \"contracts/Task-1.sol\":679:687  uint len */\n      0x00\n        /* \"contracts/Task-1.sol\":696:704  romanStr */\n      dup7\n        /* \"contracts/Task-1.sol\":690:712  bytes(romanStr).length */\n      mload\n        /* \"contracts/Task-1.sol\":679:712  uint len = bytes(romanStr).length */\n      swap1\n      pop\n        /* \"contracts/Task-1.sol\":722:743  bytes memory remanArr */\n      0x00\n        /* \"contracts/Task-1.sol\":752:760  romanStr */\n      dup8\n        /* \"contracts/Task-1.sol\":722:761  bytes memory remanArr = bytes(romanStr) */\n      swap1\n      pop\n        /* \"contracts/Task-1.sol\":777:783  uint i */\n      0x00\n        /* \"contracts/Task-1.sol\":786:789  len */\n      dup3\n        /* \"contracts/Task-1.sol\":777:789  uint i = len */\n      swap1\n      pop\n        /* \"contracts/Task-1.sol\":772:1046  for (uint i = len; i > 0; ) {... */\n    tag_145:\n        /* \"contracts/Task-1.sol\":795:796  0 */\n      0x00\n        /* \"contracts/Task-1.sol\":791:792  i */\n      dup2\n        /* \"contracts/Task-1.sol\":791:796  i > 0 */\n      gt\n        /* \"contracts/Task-1.sol\":772:1046  for (uint i = len; i > 0; ) {... */\n      iszero\n      tag_146\n      jumpi\n        /* \"contracts/Task-1.sol\":814:817  --i */\n      dup1\n      tag_148\n      swap1\n      tag_149\n      jump\t// in\n    tag_148:\n      swap1\n      pop\n        /* \"contracts/Task-1.sol\":831:840  uint curr */\n      0x00\n        /* \"contracts/Task-1.sol\":843:849  values */\n      dup5\n        /* \"contracts/Task-1.sol\":850:879  strIndexOf(keys, remanArr[i]) */\n      tag_150\n        /* \"contracts/Task-1.sol\":861:865  keys */\n      dup8\n        /* \"contracts/Task-1.sol\":867:875  remanArr */\n      dup6\n        /* \"contracts/Task-1.sol\":876:877  i */\n      dup6\n        /* \"contracts/Task-1.sol\":867:878  remanArr[i] */\n      dup2\n      mload\n      dup2\n      lt\n      tag_151\n      jumpi\n      tag_152\n      tag_45\n      jump\t// in\n    tag_152:\n    tag_151:\n      0x20\n      add\n      add\n      mload\n      0xf8\n      shr\n      0xf8\n      shl\n        /* \"contracts/Task-1.sol\":850:860  strIndexOf */\n      tag_153\n        /* \"contracts/Task-1.sol\":850:879  strIndexOf(keys, remanArr[i]) */\n      jump\t// in\n    tag_150:\n        /* \"contracts/Task-1.sol\":843:880  values[strIndexOf(keys, remanArr[i])] */\n      0x07\n      dup2\n      lt\n      tag_154\n      jumpi\n      tag_155\n      tag_45\n      jump\t// in\n    tag_155:\n    tag_154:\n      0x20\n      mul\n      add\n      mload\n        /* \"contracts/Task-1.sol\":831:880  uint curr = values[strIndexOf(keys, remanArr[i])] */\n      0xffff\n      and\n      swap1\n      pop\n        /* \"contracts/Task-1.sol\":905:909  prev */\n      dup7\n        /* \"contracts/Task-1.sol\":898:902  curr */\n      dup2\n        /* \"contracts/Task-1.sol\":898:909  curr < prev */\n      lt\n        /* \"contracts/Task-1.sol\":894:1011  if (curr < prev) {... */\n      iszero\n      tag_156\n      jumpi\n        /* \"contracts/Task-1.sol\":939:943  curr */\n      dup1\n        /* \"contracts/Task-1.sol\":929:943  result -= curr */\n      dup9\n      tag_157\n      swap2\n      swap1\n      tag_47\n      jump\t// in\n    tag_157:\n      swap8\n      pop\n        /* \"contracts/Task-1.sol\":894:1011  if (curr < prev) {... */\n      jump(tag_158)\n    tag_156:\n        /* \"contracts/Task-1.sol\":992:996  curr */\n      dup1\n        /* \"contracts/Task-1.sol\":982:996  result += curr */\n      dup9\n      tag_159\n      swap2\n      swap1\n      tag_134\n      jump\t// in\n    tag_159:\n      swap8\n      pop\n        /* \"contracts/Task-1.sol\":894:1011  if (curr < prev) {... */\n    tag_158:\n        /* \"contracts/Task-1.sol\":1031:1035  curr */\n      dup1\n        /* \"contracts/Task-1.sol\":1024:1035  prev = curr */\n      swap7\n      pop\n        /* \"contracts/Task-1.sol\":800:1046  {... */\n      pop\n        /* \"contracts/Task-1.sol\":772:1046  for (uint i = len; i > 0; ) {... */\n      jump(tag_145)\n    tag_146:\n      pop\n        /* \"contracts/Task-1.sol\":1063:1069  result */\n      dup6\n        /* \"contracts/Task-1.sol\":1056:1069  return result */\n      swap7\n      pop\n      pop\n      pop\n      pop\n      pop\n      pop\n      pop\n        /* \"contracts/Task-1.sol\":446:1076  function romanToInt(string memory romanStr) public pure returns (uint) {... */\n      swap2\n      swap1\n      pop\n      jump\t// out\n        /* \"contracts/Task-1.sol\":3167:3789  function mergeSorted(... */\n    tag_32:\n        /* \"contracts/Task-1.sol\":3271:3289  uint256[] memory c */\n      0x60\n        /* \"contracts/Task-1.sol\":3301:3313  uint256 lenA */\n      0x00\n        /* \"contracts/Task-1.sol\":3316:3317  a */\n      dup4\n        /* \"contracts/Task-1.sol\":3316:3324  a.length */\n      mload\n        /* \"contracts/Task-1.sol\":3301:3324  uint256 lenA = a.length */\n      swap1\n      pop\n        /* \"contracts/Task-1.sol\":3334:3346  uint256 lenB */\n      0x00\n        /* \"contracts/Task-1.sol\":3349:3350  b */\n      dup4\n        /* \"contracts/Task-1.sol\":3349:3357  b.length */\n      mload\n        /* \"contracts/Task-1.sol\":3334:3357  uint256 lenB = b.length */\n      swap1\n      pop\n        /* \"contracts/Task-1.sol\":3392:3396  lenB */\n      dup1\n        /* \"contracts/Task-1.sol\":3385:3389  lenA */\n      dup3\n        /* \"contracts/Task-1.sol\":3385:3396  lenA + lenB */\n      tag_161\n      swap2\n      swap1\n      tag_134\n      jump\t// in\n    tag_161:\n        /* \"contracts/Task-1.sol\":3371:3397  new uint256[](lenA + lenB) */\n      0xffffffffffffffff\n      dup2\n      gt\n      iszero\n      tag_162\n      jumpi\n      tag_163\n      tag_38\n      jump\t// in\n    tag_163:\n    tag_162:\n      mload(0x40)\n      swap1\n      dup1\n      dup3\n      mstore\n      dup1\n      0x20\n      mul\n      0x20\n      add\n      dup3\n      add\n      0x40\n      mstore\n      dup1\n      iszero\n      tag_164\n      jumpi\n      dup2\n      0x20\n      add\n      0x20\n      dup3\n      mul\n      dup1\n      calldatasize\n      dup4\n      calldatacopy\n      dup1\n      dup3\n      add\n      swap2\n      pop\n      pop\n      swap1\n      pop\n    tag_164:\n      pop\n        /* \"contracts/Task-1.sol\":3367:3397  c = new uint256[](lenA + lenB) */\n      swap3\n      pop\n        /* \"contracts/Task-1.sol\":3408:3417  uint256 i */\n      0x00\n        /* \"contracts/Task-1.sol\":3439:3448  uint256 j */\n      0x00\n        /* \"contracts/Task-1.sol\":3470:3479  uint256 k */\n      0x00\n        /* \"contracts/Task-1.sol\":3502:3674  while (i < lenA && j < lenB) {... */\n    tag_165:\n        /* \"contracts/Task-1.sol\":3513:3517  lenA */\n      dup5\n        /* \"contracts/Task-1.sol\":3509:3510  i */\n      dup4\n        /* \"contracts/Task-1.sol\":3509:3517  i < lenA */\n      lt\n        /* \"contracts/Task-1.sol\":3509:3529  i < lenA && j < lenB */\n      dup1\n      iszero\n      tag_167\n      jumpi\n      pop\n        /* \"contracts/Task-1.sol\":3525:3529  lenB */\n      dup4\n        /* \"contracts/Task-1.sol\":3521:3522  j */\n      dup3\n        /* \"contracts/Task-1.sol\":3521:3529  j < lenB */\n      lt\n        /* \"contracts/Task-1.sol\":3509:3529  i < lenA && j < lenB */\n    tag_167:\n        /* \"contracts/Task-1.sol\":3502:3674  while (i < lenA && j < lenB) {... */\n      iszero\n      tag_166\n      jumpi\n        /* \"contracts/Task-1.sol\":3556:3557  b */\n      dup7\n        /* \"contracts/Task-1.sol\":3558:3559  j */\n      dup3\n        /* \"contracts/Task-1.sol\":3556:3560  b[j] */\n      dup2\n      mload\n      dup2\n      lt\n      tag_168\n      jumpi\n      tag_169\n      tag_45\n      jump\t// in\n    tag_169:\n    tag_168:\n      0x20\n      mul\n      0x20\n      add\n      add\n      mload\n        /* \"contracts/Task-1.sol\":3549:3550  a */\n      dup9\n        /* \"contracts/Task-1.sol\":3551:3552  i */\n      dup5\n        /* \"contracts/Task-1.sol\":3549:3553  a[i] */\n      dup2\n      mload\n      dup2\n      lt\n      tag_170\n      jumpi\n      tag_171\n      tag_45\n      jump\t// in\n    tag_171:\n    tag_170:\n      0x20\n      mul\n      0x20\n      add\n      add\n      mload\n        /* \"contracts/Task-1.sol\":3549:3560  a[i] < b[j] */\n      lt\n        /* \"contracts/Task-1.sol\":3545:3664  if (a[i] < b[j]) {... */\n      iszero\n      tag_172\n      jumpi\n        /* \"contracts/Task-1.sol\":3589:3590  a */\n      dup8\n        /* \"contracts/Task-1.sol\":3591:3594  i++ */\n      dup4\n      dup1\n      tag_173\n      swap1\n      tag_174\n      jump\t// in\n    tag_173:\n      swap5\n      pop\n        /* \"contracts/Task-1.sol\":3589:3595  a[i++] */\n      dup2\n      mload\n      dup2\n      lt\n      tag_175\n      jumpi\n      tag_176\n      tag_45\n      jump\t// in\n    tag_176:\n    tag_175:\n      0x20\n      mul\n      0x20\n      add\n      add\n      mload\n        /* \"contracts/Task-1.sol\":3580:3581  c */\n      dup7\n        /* \"contracts/Task-1.sol\":3582:3585  k++ */\n      dup3\n      dup1\n      tag_177\n      swap1\n      tag_174\n      jump\t// in\n    tag_177:\n      swap4\n      pop\n        /* \"contracts/Task-1.sol\":3580:3586  c[k++] */\n      dup2\n      mload\n      dup2\n      lt\n      tag_178\n      jumpi\n      tag_179\n      tag_45\n      jump\t// in\n    tag_179:\n    tag_178:\n      0x20\n      mul\n      0x20\n      add\n      add\n        /* \"contracts/Task-1.sol\":3580:3595  c[k++] = a[i++] */\n      dup2\n      dup2\n      mstore\n      pop\n      pop\n        /* \"contracts/Task-1.sol\":3545:3664  if (a[i] < b[j]) {... */\n      jump(tag_180)\n    tag_172:\n        /* \"contracts/Task-1.sol\":3643:3644  b */\n      dup7\n        /* \"contracts/Task-1.sol\":3645:3648  j++ */\n      dup3\n      dup1\n      tag_181\n      swap1\n      tag_174\n      jump\t// in\n    tag_181:\n      swap4\n      pop\n        /* \"contracts/Task-1.sol\":3643:3649  b[j++] */\n      dup2\n      mload\n      dup2\n      lt\n      tag_182\n      jumpi\n      tag_183\n      tag_45\n      jump\t// in\n    tag_183:\n    tag_182:\n      0x20\n      mul\n      0x20\n      add\n      add\n      mload\n        /* \"contracts/Task-1.sol\":3634:3635  c */\n      dup7\n        /* \"contracts/Task-1.sol\":3636:3639  k++ */\n      dup3\n      dup1\n      tag_184\n      swap1\n      tag_174\n      jump\t// in\n    tag_184:\n      swap4\n      pop\n        /* \"contracts/Task-1.sol\":3634:3640  c[k++] */\n      dup2\n      mload\n      dup2\n      lt\n      tag_185\n      jumpi\n      tag_186\n      tag_45\n      jump\t// in\n    tag_186:\n    tag_185:\n      0x20\n      mul\n      0x20\n      add\n      add\n        /* \"contracts/Task-1.sol\":3634:3649  c[k++] = b[j++] */\n      dup2\n      dup2\n      mstore\n      pop\n      pop\n        /* \"contracts/Task-1.sol\":3545:3664  if (a[i] < b[j]) {... */\n    tag_180:\n        /* \"contracts/Task-1.sol\":3502:3674  while (i < lenA && j < lenB) {... */\n      jump(tag_165)\n    tag_166:\n        /* \"contracts/Task-1.sol\":3708:3740  while (i < lenA) c[k++] = a[i++] */\n    tag_187:\n        /* \"contracts/Task-1.sol\":3719:3723  lenA */\n      dup5\n        /* \"contracts/Task-1.sol\":3715:3716  i */\n      dup4\n        /* \"contracts/Task-1.sol\":3715:3723  i < lenA */\n      lt\n        /* \"contracts/Task-1.sol\":3708:3740  while (i < lenA) c[k++] = a[i++] */\n      iszero\n      tag_188\n      jumpi\n        /* \"contracts/Task-1.sol\":3734:3735  a */\n      dup8\n        /* \"contracts/Task-1.sol\":3736:3739  i++ */\n      dup4\n      dup1\n      tag_189\n      swap1\n      tag_174\n      jump\t// in\n    tag_189:\n      swap5\n      pop\n        /* \"contracts/Task-1.sol\":3734:3740  a[i++] */\n      dup2\n      mload\n      dup2\n      lt\n      tag_190\n      jumpi\n      tag_191\n      tag_45\n      jump\t// in\n    tag_191:\n    tag_190:\n      0x20\n      mul\n      0x20\n      add\n      add\n      mload\n        /* \"contracts/Task-1.sol\":3725:3726  c */\n      dup7\n        /* \"contracts/Task-1.sol\":3727:3730  k++ */\n      dup3\n      dup1\n      tag_192\n      swap1\n      tag_174\n      jump\t// in\n    tag_192:\n      swap4\n      pop\n        /* \"contracts/Task-1.sol\":3725:3731  c[k++] */\n      dup2\n      mload\n      dup2\n      lt\n      tag_193\n      jumpi\n      tag_194\n      tag_45\n      jump\t// in\n    tag_194:\n    tag_193:\n      0x20\n      mul\n      0x20\n      add\n      add\n        /* \"contracts/Task-1.sol\":3725:3740  c[k++] = a[i++] */\n      dup2\n      dup2\n      mstore\n      pop\n      pop\n        /* \"contracts/Task-1.sol\":3708:3740  while (i < lenA) c[k++] = a[i++] */\n      jump(tag_187)\n    tag_188:\n        /* \"contracts/Task-1.sol\":3750:3782  while (j < lenB) c[k++] = b[j++] */\n    tag_195:\n        /* \"contracts/Task-1.sol\":3761:3765  lenB */\n      dup4\n        /* \"contracts/Task-1.sol\":3757:3758  j */\n      dup3\n        /* \"contracts/Task-1.sol\":3757:3765  j < lenB */\n      lt\n        /* \"contracts/Task-1.sol\":3750:3782  while (j < lenB) c[k++] = b[j++] */\n      iszero\n      tag_196\n      jumpi\n        /* \"contracts/Task-1.sol\":3776:3777  b */\n      dup7\n        /* \"contracts/Task-1.sol\":3778:3781  j++ */\n      dup3\n      dup1\n      tag_197\n      swap1\n      tag_174\n      jump\t// in\n    tag_197:\n      swap4\n      pop\n        /* \"contracts/Task-1.sol\":3776:3782  b[j++] */\n      dup2\n      mload\n      dup2\n      lt\n      tag_198\n      jumpi\n      tag_199\n      tag_45\n      jump\t// in\n    tag_199:\n    tag_198:\n      0x20\n      mul\n      0x20\n      add\n      add\n      mload\n        /* \"contracts/Task-1.sol\":3767:3768  c */\n      dup7\n        /* \"contracts/Task-1.sol\":3769:3772  k++ */\n      dup3\n      dup1\n      tag_200\n      swap1\n      tag_174\n      jump\t// in\n    tag_200:\n      swap4\n      pop\n        /* \"contracts/Task-1.sol\":3767:3773  c[k++] */\n      dup2\n      mload\n      dup2\n      lt\n      tag_201\n      jumpi\n      tag_202\n      tag_45\n      jump\t// in\n    tag_202:\n    tag_201:\n      0x20\n      mul\n      0x20\n      add\n      add\n        /* \"contracts/Task-1.sol\":3767:3782  c[k++] = b[j++] */\n      dup2\n      dup2\n      mstore\n      pop\n      pop\n        /* \"contracts/Task-1.sol\":3750:3782  while (j < lenB) c[k++] = b[j++] */\n      jump(tag_195)\n    tag_196:\n        /* \"contracts/Task-1.sol\":3291:3789  {... */\n      pop\n      pop\n      pop\n      pop\n      pop\n        /* \"contracts/Task-1.sol\":3167:3789  function mergeSorted(... */\n      swap3\n      swap2\n      pop\n      pop\n      jump\t// out\n        /* \"contracts/Task-1.sol\":1126:1444  function strIndexOf(... */\n    tag_153:\n        /* \"contracts/Task-1.sol\":1222:1226  uint */\n      0x00\n        /* \"contracts/Task-1.sol\":1238:1252  bytes memory s */\n      0x00\n        /* \"contracts/Task-1.sol\":1261:1264  str */\n      dup4\n        /* \"contracts/Task-1.sol\":1238:1265  bytes memory s = bytes(str) */\n      swap1\n      pop\n        /* \"contracts/Task-1.sol\":1275:1283  uint len */\n      0x00\n        /* \"contracts/Task-1.sol\":1286:1287  s */\n      dup2\n        /* \"contracts/Task-1.sol\":1286:1294  s.length */\n      mload\n        /* \"contracts/Task-1.sol\":1275:1294  uint len = s.length */\n      swap1\n      pop\n        /* \"contracts/Task-1.sol\":1310:1316  uint i */\n      0x00\n        /* \"contracts/Task-1.sol\":1319:1320  0 */\n      0x00\n        /* \"contracts/Task-1.sol\":1310:1320  uint i = 0 */\n      swap1\n      pop\n        /* \"contracts/Task-1.sol\":1305:1419  for (uint i = 0; i < len; i++) {... */\n    tag_204:\n        /* \"contracts/Task-1.sol\":1326:1329  len */\n      dup2\n        /* \"contracts/Task-1.sol\":1322:1323  i */\n      dup2\n        /* \"contracts/Task-1.sol\":1322:1329  i < len */\n      lt\n        /* \"contracts/Task-1.sol\":1305:1419  for (uint i = 0; i < len; i++) {... */\n      iszero\n      tag_205\n      jumpi\n        /* \"contracts/Task-1.sol\":1362:1363  s */\n      dup3\n        /* \"contracts/Task-1.sol\":1364:1365  i */\n      dup2\n        /* \"contracts/Task-1.sol\":1362:1366  s[i] */\n      dup2\n      mload\n      dup2\n      lt\n      tag_207\n      jumpi\n      tag_208\n      tag_45\n      jump\t// in\n    tag_208:\n    tag_207:\n      0x20\n      add\n      add\n      mload\n      0xf8\n      shr\n      0xf8\n      shl\n        /* \"contracts/Task-1.sol\":1354:1366  char == s[i] */\n      not(0xffffffffffffffffffffffffffffffffffffffffffffffffffffffffffffff)\n      and\n        /* \"contracts/Task-1.sol\":1354:1358  char */\n      dup6\n        /* \"contracts/Task-1.sol\":1354:1366  char == s[i] */\n      not(0xffffffffffffffffffffffffffffffffffffffffffffffffffffffffffffff)\n      and\n      sub\n        /* \"contracts/Task-1.sol\":1350:1409  if (char == s[i]) {... */\n      tag_209\n      jumpi\n        /* \"contracts/Task-1.sol\":1393:1394  i */\n      dup1\n        /* \"contracts/Task-1.sol\":1386:1394  return i */\n      swap4\n      pop\n      pop\n      pop\n      pop\n      jump(tag_203)\n        /* \"contracts/Task-1.sol\":1350:1409  if (char == s[i]) {... */\n    tag_209:\n        /* \"contracts/Task-1.sol\":1331:1334  i++ */\n      dup1\n      dup1\n      0x01\n      add\n      swap2\n      pop\n      pop\n        /* \"contracts/Task-1.sol\":1305:1419  for (uint i = 0; i < len; i++) {... */\n      jump(tag_204)\n    tag_205:\n      pop\n        /* \"contracts/Task-1.sol\":1436:1437  0 */\n      0x00\n        /* \"contracts/Task-1.sol\":1429:1437  return 0 */\n      swap3\n      pop\n      pop\n      pop\n        /* \"contracts/Task-1.sol\":1126:1444  function strIndexOf(... */\n    tag_203:\n      swap3\n      swap2\n      pop\n      pop\n      jump\t// out\n        /* \"#utility.yul\":7:82   */\n    tag_210:\n        /* \"#utility.yul\":40:46   */\n      0x00\n        /* \"#utility.yul\":73:75   */\n      0x40\n        /* \"#utility.yul\":67:76   */\n      mload\n        /* \"#utility.yul\":57:76   */\n      swap1\n      pop\n        /* \"#utility.yul\":7:82   */\n      swap1\n      jump\t// out\n        /* \"#utility.yul\":88:205   */\n    tag_211:\n        /* \"#utility.yul\":197:198   */\n      0x00\n        /* \"#utility.yul\":194:195   */\n      0x00\n        /* \"#utility.yul\":187:199   */\n      revert\n        /* \"#utility.yul\":211:328   */\n    tag_212:\n        /* \"#utility.yul\":320:321   */\n      0x00\n        /* \"#utility.yul\":317:318   */\n      0x00\n        /* \"#utility.yul\":310:322   */\n      revert\n        /* \"#utility.yul\":334:451   */\n    tag_213:\n        /* \"#utility.yul\":443:444   */\n      0x00\n        /* \"#utility.yul\":440:441   */\n      0x00\n        /* \"#utility.yul\":433:445   */\n      revert\n        /* \"#utility.yul\":457:574   */\n    tag_214:\n        /* \"#utility.yul\":566:567   */\n      0x00\n        /* \"#utility.yul\":563:564   */\n      0x00\n        /* \"#utility.yul\":556:568   */\n      revert\n        /* \"#utility.yul\":580:682   */\n    tag_215:\n        /* \"#utility.yul\":621:627   */\n      0x00\n        /* \"#utility.yul\":672:674   */\n      0x1f\n        /* \"#utility.yul\":668:675   */\n      not\n        /* \"#utility.yul\":663:665   */\n      0x1f\n        /* \"#utility.yul\":656:661   */\n      dup4\n        /* \"#utility.yul\":652:666   */\n      add\n        /* \"#utility.yul\":648:676   */\n      and\n        /* \"#utility.yul\":638:676   */\n      swap1\n      pop\n        /* \"#utility.yul\":580:682   */\n      swap2\n      swap1\n      pop\n      jump\t// out\n        /* \"#utility.yul\":688:868   */\n    tag_38:\n        /* \"#utility.yul\":736:813   */\n      0x4e487b7100000000000000000000000000000000000000000000000000000000\n        /* \"#utility.yul\":733:734   */\n      0x00\n        /* \"#utility.yul\":726:814   */\n      mstore\n        /* \"#utility.yul\":833:837   */\n      0x41\n        /* \"#utility.yul\":830:831   */\n      0x04\n        /* \"#utility.yul\":823:838   */\n      mstore\n        /* \"#utility.yul\":857:861   */\n      0x24\n        /* \"#utility.yul\":854:855   */\n      0x00\n        /* \"#utility.yul\":847:862   */\n      revert\n        /* \"#utility.yul\":874:1155   */\n    tag_216:\n        /* \"#utility.yul\":957:984   */\n      tag_255\n        /* \"#utility.yul\":979:983   */\n      dup3\n        /* \"#utility.yul\":957:984   */\n      tag_215\n      jump\t// in\n    tag_255:\n        /* \"#utility.yul\":949:955   */\n      dup2\n        /* \"#utility.yul\":945:985   */\n      add\n        /* \"#utility.yul\":1087:1093   */\n      dup2\n        /* \"#utility.yul\":1075:1085   */\n      dup2\n        /* \"#utility.yul\":1072:1094   */\n      lt\n        /* \"#utility.yul\":1051:1069   */\n      0xffffffffffffffff\n        /* \"#utility.yul\":1039:1049   */\n      dup3\n        /* \"#utility.yul\":1036:1070   */\n      gt\n        /* \"#utility.yul\":1033:1095   */\n      or\n        /* \"#utility.yul\":1030:1118   */\n      iszero\n      tag_256\n      jumpi\n        /* \"#utility.yul\":1098:1116   */\n      tag_257\n      tag_38\n      jump\t// in\n    tag_257:\n        /* \"#utility.yul\":1030:1118   */\n    tag_256:\n        /* \"#utility.yul\":1138:1148   */\n      dup1\n        /* \"#utility.yul\":1134:1136   */\n      0x40\n        /* \"#utility.yul\":1127:1149   */\n      mstore\n        /* \"#utility.yul\":917:1155   */\n      pop\n        /* \"#utility.yul\":874:1155   */\n      pop\n      pop\n      jump\t// out\n        /* \"#utility.yul\":1161:1290   */\n    tag_217:\n        /* \"#utility.yul\":1195:1201   */\n      0x00\n        /* \"#utility.yul\":1222:1242   */\n      tag_259\n      tag_210\n      jump\t// in\n    tag_259:\n        /* \"#utility.yul\":1212:1242   */\n      swap1\n      pop\n        /* \"#utility.yul\":1251:1284   */\n      tag_260\n        /* \"#utility.yul\":1279:1283   */\n      dup3\n        /* \"#utility.yul\":1271:1277   */\n      dup3\n        /* \"#utility.yul\":1251:1284   */\n      tag_216\n      jump\t// in\n    tag_260:\n        /* \"#utility.yul\":1161:1290   */\n      swap2\n      swap1\n      pop\n      jump\t// out\n        /* \"#utility.yul\":1296:1604   */\n    tag_218:\n        /* \"#utility.yul\":1358:1362   */\n      0x00\n        /* \"#utility.yul\":1448:1466   */\n      0xffffffffffffffff\n        /* \"#utility.yul\":1440:1446   */\n      dup3\n        /* \"#utility.yul\":1437:1467   */\n      gt\n        /* \"#utility.yul\":1434:1490   */\n      iszero\n      tag_262\n      jumpi\n        /* \"#utility.yul\":1470:1488   */\n      tag_263\n      tag_38\n      jump\t// in\n    tag_263:\n        /* \"#utility.yul\":1434:1490   */\n    tag_262:\n        /* \"#utility.yul\":1508:1537   */\n      tag_264\n        /* \"#utility.yul\":1530:1536   */\n      dup3\n        /* \"#utility.yul\":1508:1537   */\n      tag_215\n      jump\t// in\n    tag_264:\n        /* \"#utility.yul\":1500:1537   */\n      swap1\n      pop\n        /* \"#utility.yul\":1592:1596   */\n      0x20\n        /* \"#utility.yul\":1586:1590   */\n      dup2\n        /* \"#utility.yul\":1582:1597   */\n      add\n        /* \"#utility.yul\":1574:1597   */\n      swap1\n      pop\n        /* \"#utility.yul\":1296:1604   */\n      swap2\n      swap1\n      pop\n      jump\t// out\n        /* \"#utility.yul\":1610:1758   */\n    tag_219:\n        /* \"#utility.yul\":1708:1714   */\n      dup3\n        /* \"#utility.yul\":1703:1706   */\n      dup2\n        /* \"#utility.yul\":1698:1701   */\n      dup4\n        /* \"#utility.yul\":1685:1715   */\n      calldatacopy\n        /* \"#utility.yul\":1749:1750   */\n      0x00\n        /* \"#utility.yul\":1740:1746   */\n      dup4\n        /* \"#utility.yul\":1735:1738   */\n      dup4\n        /* \"#utility.yul\":1731:1747   */\n      add\n        /* \"#utility.yul\":1724:1751   */\n      mstore\n        /* \"#utility.yul\":1610:1758   */\n      pop\n      pop\n      pop\n      jump\t// out\n        /* \"#utility.yul\":1764:2189   */\n    tag_220:\n        /* \"#utility.yul\":1842:1847   */\n      0x00\n        /* \"#utility.yul\":1867:1933   */\n      tag_267\n        /* \"#utility.yul\":1883:1932   */\n      tag_268\n        /* \"#utility.yul\":1925:1931   */\n      dup5\n        /* \"#utility.yul\":1883:1932   */\n      tag_218\n      jump\t// in\n    tag_268:\n        /* \"#utility.yul\":1867:1933   */\n      tag_217\n      jump\t// in\n    tag_267:\n        /* \"#utility.yul\":1858:1933   */\n      swap1\n      pop\n        /* \"#utility.yul\":1956:1962   */\n      dup3\n        /* \"#utility.yul\":1949:1954   */\n      dup2\n        /* \"#utility.yul\":1942:1963   */\n      mstore\n        /* \"#utility.yul\":1994:1998   */\n      0x20\n        /* \"#utility.yul\":1987:1992   */\n      dup2\n        /* \"#utility.yul\":1983:1999   */\n      add\n        /* \"#utility.yul\":2032:2035   */\n      dup5\n        /* \"#utility.yul\":2023:2029   */\n      dup5\n        /* \"#utility.yul\":2018:2021   */\n      dup5\n        /* \"#utility.yul\":2014:2030   */\n      add\n        /* \"#utility.yul\":2011:2036   */\n      gt\n        /* \"#utility.yul\":2008:2120   */\n      iszero\n      tag_269\n      jumpi\n        /* \"#utility.yul\":2039:2118   */\n      tag_270\n      tag_214\n      jump\t// in\n    tag_270:\n        /* \"#utility.yul\":2008:2120   */\n    tag_269:\n        /* \"#utility.yul\":2129:2183   */\n      tag_271\n        /* \"#utility.yul\":2176:2182   */\n      dup5\n        /* \"#utility.yul\":2171:2174   */\n      dup3\n        /* \"#utility.yul\":2166:2169   */\n      dup6\n        /* \"#utility.yul\":2129:2183   */\n      tag_219\n      jump\t// in\n    tag_271:\n        /* \"#utility.yul\":1848:2189   */\n      pop\n        /* \"#utility.yul\":1764:2189   */\n      swap4\n      swap3\n      pop\n      pop\n      pop\n      jump\t// out\n        /* \"#utility.yul\":2209:2549   */\n    tag_221:\n        /* \"#utility.yul\":2265:2270   */\n      0x00\n        /* \"#utility.yul\":2314:2317   */\n      dup3\n        /* \"#utility.yul\":2307:2311   */\n      0x1f\n        /* \"#utility.yul\":2299:2305   */\n      dup4\n        /* \"#utility.yul\":2295:2312   */\n      add\n        /* \"#utility.yul\":2291:2318   */\n      slt\n        /* \"#utility.yul\":2281:2403   */\n      tag_273\n      jumpi\n        /* \"#utility.yul\":2322:2401   */\n      tag_274\n      tag_213\n      jump\t// in\n    tag_274:\n        /* \"#utility.yul\":2281:2403   */\n    tag_273:\n        /* \"#utility.yul\":2439:2445   */\n      dup2\n        /* \"#utility.yul\":2426:2446   */\n      calldataload\n        /* \"#utility.yul\":2464:2543   */\n      tag_275\n        /* \"#utility.yul\":2539:2542   */\n      dup5\n        /* \"#utility.yul\":2531:2537   */\n      dup3\n        /* \"#utility.yul\":2524:2528   */\n      0x20\n        /* \"#utility.yul\":2516:2522   */\n      dup7\n        /* \"#utility.yul\":2512:2529   */\n      add\n        /* \"#utility.yul\":2464:2543   */\n      tag_220\n      jump\t// in\n    tag_275:\n        /* \"#utility.yul\":2455:2543   */\n      swap2\n      pop\n        /* \"#utility.yul\":2271:2549   */\n      pop\n        /* \"#utility.yul\":2209:2549   */\n      swap3\n      swap2\n      pop\n      pop\n      jump\t// out\n        /* \"#utility.yul\":2555:3064   */\n    tag_10:\n        /* \"#utility.yul\":2624:2630   */\n      0x00\n        /* \"#utility.yul\":2673:2675   */\n      0x20\n        /* \"#utility.yul\":2661:2670   */\n      dup3\n        /* \"#utility.yul\":2652:2659   */\n      dup5\n        /* \"#utility.yul\":2648:2671   */\n      sub\n        /* \"#utility.yul\":2644:2676   */\n      slt\n        /* \"#utility.yul\":2641:2760   */\n      iszero\n      tag_277\n      jumpi\n        /* \"#utility.yul\":2679:2758   */\n      tag_278\n      tag_211\n      jump\t// in\n    tag_278:\n        /* \"#utility.yul\":2641:2760   */\n    tag_277:\n        /* \"#utility.yul\":2827:2828   */\n      0x00\n        /* \"#utility.yul\":2816:2825   */\n      dup3\n        /* \"#utility.yul\":2812:2829   */\n      add\n        /* \"#utility.yul\":2799:2830   */\n      calldataload\n        /* \"#utility.yul\":2857:2875   */\n      0xffffffffffffffff\n        /* \"#utility.yul\":2849:2855   */\n      dup2\n        /* \"#utility.yul\":2846:2876   */\n      gt\n        /* \"#utility.yul\":2843:2960   */\n      iszero\n      tag_279\n      jumpi\n        /* \"#utility.yul\":2879:2958   */\n      tag_280\n      tag_212\n      jump\t// in\n    tag_280:\n        /* \"#utility.yul\":2843:2960   */\n    tag_279:\n        /* \"#utility.yul\":2984:3047   */\n      tag_281\n        /* \"#utility.yul\":3039:3046   */\n      dup5\n        /* \"#utility.yul\":3030:3036   */\n      dup3\n        /* \"#utility.yul\":3019:3028   */\n      dup6\n        /* \"#utility.yul\":3015:3037   */\n      add\n        /* \"#utility.yul\":2984:3047   */\n      tag_221\n      jump\t// in\n    tag_281:\n        /* \"#utility.yul\":2974:3047   */\n      swap2\n      pop\n        /* \"#utility.yul\":2770:3057   */\n      pop\n        /* \"#utility.yul\":2555:3064   */\n      swap3\n      swap2\n      pop\n      pop\n      jump\t// out\n        /* \"#utility.yul\":3070:3169   */\n    tag_222:\n        /* \"#utility.yul\":3122:3128   */\n      0x00\n        /* \"#utility.yul\":3156:3161   */\n      dup2\n        /* \"#utility.yul\":3150:3162   */\n      mload\n        /* \"#utility.yul\":3140:3162   */\n      swap1\n      pop\n        /* \"#utility.yul\":3070:3169   */\n      swap2\n      swap1\n      pop\n      jump\t// out\n        /* \"#utility.yul\":3175:3344   */\n    tag_223:\n        /* \"#utility.yul\":3259:3270   */\n      0x00\n        /* \"#utility.yul\":3293:3299   */\n      dup3\n        /* \"#utility.yul\":3288:3291   */\n      dup3\n        /* \"#utility.yul\":3281:3300   */\n      mstore\n        /* \"#utility.yul\":3333:3337   */\n      0x20\n        /* \"#utility.yul\":3328:3331   */\n      dup3\n        /* \"#utility.yul\":3324:3338   */\n      add\n        /* \"#utility.yul\":3309:3338   */\n      swap1\n      pop\n        /* \"#utility.yul\":3175:3344   */\n      swap3\n      swap2\n      pop\n      pop\n      jump\t// out\n        /* \"#utility.yul\":3350:3489   */\n    tag_224:\n        /* \"#utility.yul\":3439:3445   */\n      dup3\n        /* \"#utility.yul\":3434:3437   */\n      dup2\n        /* \"#utility.yul\":3429:3432   */\n      dup4\n        /* \"#utility.yul\":3423:3446   */\n      mcopy\n        /* \"#utility.yul\":3480:3481   */\n      0x00\n        /* \"#utility.yul\":3471:3477   */\n      dup4\n        /* \"#utility.yul\":3466:3469   */\n      dup4\n        /* \"#utility.yul\":3462:3478   */\n      add\n        /* \"#utility.yul\":3455:3482   */\n      mstore\n        /* \"#utility.yul\":3350:3489   */\n      pop\n      pop\n      pop\n      jump\t// out\n        /* \"#utility.yul\":3495:3872   */\n    tag_225:\n        /* \"#utility.yul\":3583:3586   */\n      0x00\n        /* \"#utility.yul\":3611:3650   */\n      tag_286\n        /* \"#utility.yul\":3644:3649   */\n      dup3\n        /* \"#utility.yul\":3611:3650   */\n      tag_222\n      jump\t// in\n    tag_286:\n        /* \"#utility.yul\":3666:3737   */\n      tag_287\n        /* \"#utility.yul\":3730:3736   */\n      dup2\n        /* \"#utility.yul\":3725:3728   */\n      dup6\n        /* \"#utility.yul\":3666:3737   */\n      tag_223\n      jump\t// in\n    tag_287:\n        /* \"#utility.yul\":3659:3737   */\n      swap4\n      pop\n        /* \"#utility.yul\":3746:3811   */\n      tag_288\n        /* \"#utility.yul\":3804:3810   */\n      dup2\n        /* \"#utility.yul\":3799:3802   */\n      dup6\n        /* \"#utility.yul\":3792:3796   */\n      0x20\n        /* \"#utility.yul\":3785:3790   */\n      dup7\n        /* \"#utility.yul\":3781:3797   */\n      add\n        /* \"#utility.yul\":3746:3811   */\n      tag_224\n      jump\t// in\n    tag_288:\n        /* \"#utility.yul\":3836:3865   */\n      tag_289\n        /* \"#utility.yul\":3858:3864   */\n      dup2\n        /* \"#utility.yul\":3836:3865   */\n      tag_215\n      jump\t// in\n    tag_289:\n        /* \"#utility.yul\":3831:3834   */\n      dup5\n        /* \"#utility.yul\":3827:3866   */\n      add\n        /* \"#utility.yul\":3820:3866   */\n      swap2\n      pop\n        /* \"#utility.yul\":3587:3872   */\n      pop\n        /* \"#utility.yul\":3495:3872   */\n      swap3\n      swap2\n      pop\n      pop\n      jump\t// out\n        /* \"#utility.yul\":3878:4191   */\n    tag_13:\n        /* \"#utility.yul\":3991:3995   */\n      0x00\n        /* \"#utility.yul\":4029:4031   */\n      0x20\n        /* \"#utility.yul\":4018:4027   */\n      dup3\n        /* \"#utility.yul\":4014:4032   */\n      add\n        /* \"#utility.yul\":4006:4032   */\n      swap1\n      pop\n        /* \"#utility.yul\":4078:4087   */\n      dup2\n        /* \"#utility.yul\":4072:4076   */\n      dup2\n        /* \"#utility.yul\":4068:4088   */\n      sub\n        /* \"#utility.yul\":4064:4065   */\n      0x00\n        /* \"#utility.yul\":4053:4062   */\n      dup4\n        /* \"#utility.yul\":4049:4066   */\n      add\n        /* \"#utility.yul\":4042:4089   */\n      mstore\n        /* \"#utility.yul\":4106:4184   */\n      tag_291\n        /* \"#utility.yul\":4179:4183   */\n      dup2\n        /* \"#utility.yul\":4170:4176   */\n      dup5\n        /* \"#utility.yul\":4106:4184   */\n      tag_225\n      jump\t// in\n    tag_291:\n        /* \"#utility.yul\":4098:4184   */\n      swap1\n      pop\n        /* \"#utility.yul\":3878:4191   */\n      swap3\n      swap2\n      pop\n      pop\n      jump\t// out\n        /* \"#utility.yul\":4197:4274   */\n    tag_226:\n        /* \"#utility.yul\":4234:4241   */\n      0x00\n        /* \"#utility.yul\":4263:4268   */\n      dup2\n        /* \"#utility.yul\":4252:4268   */\n      swap1\n      pop\n        /* \"#utility.yul\":4197:4274   */\n      swap2\n      swap1\n      pop\n      jump\t// out\n        /* \"#utility.yul\":4280:4402   */\n    tag_227:\n        /* \"#utility.yul\":4353:4377   */\n      tag_294\n        /* \"#utility.yul\":4371:4376   */\n      dup2\n        /* \"#utility.yul\":4353:4377   */\n      tag_226\n      jump\t// in\n    tag_294:\n        /* \"#utility.yul\":4346:4351   */\n      dup2\n        /* \"#utility.yul\":4343:4378   */\n      eq\n        /* \"#utility.yul\":4333:4396   */\n      tag_295\n      jumpi\n        /* \"#utility.yul\":4392:4393   */\n      0x00\n        /* \"#utility.yul\":4389:4390   */\n      0x00\n        /* \"#utility.yul\":4382:4394   */\n      revert\n        /* \"#utility.yul\":4333:4396   */\n    tag_295:\n        /* \"#utility.yul\":4280:4402   */\n      pop\n      jump\t// out\n        /* \"#utility.yul\":4408:4547   */\n    tag_228:\n        /* \"#utility.yul\":4454:4459   */\n      0x00\n        /* \"#utility.yul\":4492:4498   */\n      dup2\n        /* \"#utility.yul\":4479:4499   */\n      calldataload\n        /* \"#utility.yul\":4470:4499   */\n      swap1\n      pop\n        /* \"#utility.yul\":4508:4541   */\n      tag_297\n        /* \"#utility.yul\":4535:4540   */\n      dup2\n        /* \"#utility.yul\":4508:4541   */\n      tag_227\n      jump\t// in\n    tag_297:\n        /* \"#utility.yul\":4408:4547   */\n      swap3\n      swap2\n      pop\n      pop\n      jump\t// out\n        /* \"#utility.yul\":4553:4882   */\n    tag_16:\n        /* \"#utility.yul\":4612:4618   */\n      0x00\n        /* \"#utility.yul\":4661:4663   */\n      0x20\n        /* \"#utility.yul\":4649:4658   */\n      dup3\n        /* \"#utility.yul\":4640:4647   */\n      dup5\n        /* \"#utility.yul\":4636:4659   */\n      sub\n        /* \"#utility.yul\":4632:4664   */\n      slt\n        /* \"#utility.yul\":4629:4748   */\n      iszero\n      tag_299\n      jumpi\n        /* \"#utility.yul\":4667:4746   */\n      tag_300\n      tag_211\n      jump\t// in\n    tag_300:\n        /* \"#utility.yul\":4629:4748   */\n    tag_299:\n        /* \"#utility.yul\":4787:4788   */\n      0x00\n        /* \"#utility.yul\":4812:4865   */\n      tag_301\n        /* \"#utility.yul\":4857:4864   */\n      dup5\n        /* \"#utility.yul\":4848:4854   */\n      dup3\n        /* \"#utility.yul\":4837:4846   */\n      dup6\n        /* \"#utility.yul\":4833:4855   */\n      add\n        /* \"#utility.yul\":4812:4865   */\n      tag_228\n      jump\t// in\n    tag_301:\n        /* \"#utility.yul\":4802:4865   */\n      swap2\n      pop\n        /* \"#utility.yul\":4758:4875   */\n      pop\n        /* \"#utility.yul\":4553:4882   */\n      swap3\n      swap2\n      pop\n      pop\n      jump\t// out\n        /* \"#utility.yul\":4888:5199   */\n    tag_229:\n        /* \"#utility.yul\":4965:4969   */\n      0x00\n        /* \"#utility.yul\":5055:5073   */\n      0xffffffffffffffff\n        /* \"#utility.yul\":5047:5053   */\n      dup3\n        /* \"#utility.yul\":5044:5074   */\n      gt\n        /* \"#utility.yul\":5041:5097   */\n      iszero\n      tag_303\n      jumpi\n        /* \"#utility.yul\":5077:5095   */\n      tag_304\n      tag_38\n      jump\t// in\n    tag_304:\n        /* \"#utility.yul\":5041:5097   */\n    tag_303:\n        /* \"#utility.yul\":5127:5131   */\n      0x20\n        /* \"#utility.yul\":5119:5125   */\n      dup3\n        /* \"#utility.yul\":5115:5132   */\n      mul\n        /* \"#utility.yul\":5107:5132   */\n      swap1\n      pop\n        /* \"#utility.yul\":5187:5191   */\n      0x20\n        /* \"#utility.yul\":5181:5185   */\n      dup2\n        /* \"#utility.yul\":5177:5192   */\n      add\n        /* \"#utility.yul\":5169:5192   */\n      swap1\n      pop\n        /* \"#utility.yul\":4888:5199   */\n      swap2\n      swap1\n      pop\n      jump\t// out\n        /* \"#utility.yul\":5205:5322   */\n    tag_230:\n        /* \"#utility.yul\":5314:5315   */\n      0x00\n        /* \"#utility.yul\":5311:5312   */\n      0x00\n        /* \"#utility.yul\":5304:5316   */\n      revert\n        /* \"#utility.yul\":5345:6055   */\n    tag_231:\n        /* \"#utility.yul\":5441:5446   */\n      0x00\n        /* \"#utility.yul\":5466:5547   */\n      tag_307\n        /* \"#utility.yul\":5482:5546   */\n      tag_308\n        /* \"#utility.yul\":5539:5545   */\n      dup5\n        /* \"#utility.yul\":5482:5546   */\n      tag_229\n      jump\t// in\n    tag_308:\n        /* \"#utility.yul\":5466:5547   */\n      tag_217\n      jump\t// in\n    tag_307:\n        /* \"#utility.yul\":5457:5547   */\n      swap1\n      pop\n        /* \"#utility.yul\":5567:5572   */\n      dup1\n        /* \"#utility.yul\":5596:5602   */\n      dup4\n        /* \"#utility.yul\":5589:5594   */\n      dup3\n        /* \"#utility.yul\":5582:5603   */\n      mstore\n        /* \"#utility.yul\":5630:5634   */\n      0x20\n        /* \"#utility.yul\":5623:5628   */\n      dup3\n        /* \"#utility.yul\":5619:5635   */\n      add\n        /* \"#utility.yul\":5612:5635   */\n      swap1\n      pop\n        /* \"#utility.yul\":5683:5687   */\n      0x20\n        /* \"#utility.yul\":5675:5681   */\n      dup5\n        /* \"#utility.yul\":5671:5688   */\n      mul\n        /* \"#utility.yul\":5663:5669   */\n      dup4\n        /* \"#utility.yul\":5659:5689   */\n      add\n        /* \"#utility.yul\":5712:5715   */\n      dup6\n        /* \"#utility.yul\":5704:5710   */\n      dup2\n        /* \"#utility.yul\":5701:5716   */\n      gt\n        /* \"#utility.yul\":5698:5820   */\n      iszero\n      tag_309\n      jumpi\n        /* \"#utility.yul\":5731:5810   */\n      tag_310\n      tag_230\n      jump\t// in\n    tag_310:\n        /* \"#utility.yul\":5698:5820   */\n    tag_309:\n        /* \"#utility.yul\":5846:5852   */\n      dup4\n        /* \"#utility.yul\":5829:6049   */\n    tag_311:\n        /* \"#utility.yul\":5863:5869   */\n      dup2\n        /* \"#utility.yul\":5858:5861   */\n      dup2\n        /* \"#utility.yul\":5855:5870   */\n      lt\n        /* \"#utility.yul\":5829:6049   */\n      iszero\n      tag_313\n      jumpi\n        /* \"#utility.yul\":5938:5941   */\n      dup1\n        /* \"#utility.yul\":5967:6004   */\n      tag_314\n        /* \"#utility.yul\":6000:6003   */\n      dup9\n        /* \"#utility.yul\":5988:5998   */\n      dup3\n        /* \"#utility.yul\":5967:6004   */\n      tag_228\n      jump\t// in\n    tag_314:\n        /* \"#utility.yul\":5962:5965   */\n      dup5\n        /* \"#utility.yul\":5955:6005   */\n      mstore\n        /* \"#utility.yul\":6034:6038   */\n      0x20\n        /* \"#utility.yul\":6029:6032   */\n      dup5\n        /* \"#utility.yul\":6025:6039   */\n      add\n        /* \"#utility.yul\":6018:6039   */\n      swap4\n      pop\n        /* \"#utility.yul\":5905:6049   */\n      pop\n        /* \"#utility.yul\":5889:5893   */\n      0x20\n        /* \"#utility.yul\":5884:5887   */\n      dup2\n        /* \"#utility.yul\":5880:5894   */\n      add\n        /* \"#utility.yul\":5873:5894   */\n      swap1\n      pop\n        /* \"#utility.yul\":5829:6049   */\n      jump(tag_311)\n    tag_313:\n        /* \"#utility.yul\":5833:5854   */\n      pop\n        /* \"#utility.yul\":5447:6055   */\n      pop\n      pop\n        /* \"#utility.yul\":5345:6055   */\n      swap4\n      swap3\n      pop\n      pop\n      pop\n      jump\t// out\n        /* \"#utility.yul\":6078:6448   */\n    tag_232:\n        /* \"#utility.yul\":6149:6154   */\n      0x00\n        /* \"#utility.yul\":6198:6201   */\n      dup3\n        /* \"#utility.yul\":6191:6195   */\n      0x1f\n        /* \"#utility.yul\":6183:6189   */\n      dup4\n        /* \"#utility.yul\":6179:6196   */\n      add\n        /* \"#utility.yul\":6175:6202   */\n      slt\n        /* \"#utility.yul\":6165:6287   */\n      tag_316\n      jumpi\n        /* \"#utility.yul\":6206:6285   */\n      tag_317\n      tag_213\n      jump\t// in\n    tag_317:\n        /* \"#utility.yul\":6165:6287   */\n    tag_316:\n        /* \"#utility.yul\":6323:6329   */\n      dup2\n        /* \"#utility.yul\":6310:6330   */\n      calldataload\n        /* \"#utility.yul\":6348:6442   */\n      tag_318\n        /* \"#utility.yul\":6438:6441   */\n      dup5\n        /* \"#utility.yul\":6430:6436   */\n      dup3\n        /* \"#utility.yul\":6423:6427   */\n      0x20\n        /* \"#utility.yul\":6415:6421   */\n      dup7\n        /* \"#utility.yul\":6411:6428   */\n      add\n        /* \"#utility.yul\":6348:6442   */\n      tag_231\n      jump\t// in\n    tag_318:\n        /* \"#utility.yul\":6339:6442   */\n      swap2\n      pop\n        /* \"#utility.yul\":6155:6448   */\n      pop\n        /* \"#utility.yul\":6078:6448   */\n      swap3\n      swap2\n      pop\n      pop\n      jump\t// out\n        /* \"#utility.yul\":6454:7138   */\n    tag_21:\n        /* \"#utility.yul\":6547:6553   */\n      0x00\n        /* \"#utility.yul\":6555:6561   */\n      0x00\n        /* \"#utility.yul\":6604:6606   */\n      0x40\n        /* \"#utility.yul\":6592:6601   */\n      dup4\n        /* \"#utility.yul\":6583:6590   */\n      dup6\n        /* \"#utility.yul\":6579:6602   */\n      sub\n        /* \"#utility.yul\":6575:6607   */\n      slt\n        /* \"#utility.yul\":6572:6691   */\n      iszero\n      tag_320\n      jumpi\n        /* \"#utility.yul\":6610:6689   */\n      tag_321\n      tag_211\n      jump\t// in\n    tag_321:\n        /* \"#utility.yul\":6572:6691   */\n    tag_320:\n        /* \"#utility.yul\":6758:6759   */\n      0x00\n        /* \"#utility.yul\":6747:6756   */\n      dup4\n        /* \"#utility.yul\":6743:6760   */\n      add\n        /* \"#utility.yul\":6730:6761   */\n      calldataload\n        /* \"#utility.yul\":6788:6806   */\n      0xffffffffffffffff\n        /* \"#utility.yul\":6780:6786   */\n      dup2\n        /* \"#utility.yul\":6777:6807   */\n      gt\n        /* \"#utility.yul\":6774:6891   */\n      iszero\n      tag_322\n      jumpi\n        /* \"#utility.yul\":6810:6889   */\n      tag_323\n      tag_212\n      jump\t// in\n    tag_323:\n        /* \"#utility.yul\":6774:6891   */\n    tag_322:\n        /* \"#utility.yul\":6915:6993   */\n      tag_324\n        /* \"#utility.yul\":6985:6992   */\n      dup6\n        /* \"#utility.yul\":6976:6982   */\n      dup3\n        /* \"#utility.yul\":6965:6974   */\n      dup7\n        /* \"#utility.yul\":6961:6983   */\n      add\n        /* \"#utility.yul\":6915:6993   */\n      tag_232\n      jump\t// in\n    tag_324:\n        /* \"#utility.yul\":6905:6993   */\n      swap3\n      pop\n        /* \"#utility.yul\":6701:7003   */\n      pop\n        /* \"#utility.yul\":7042:7044   */\n      0x20\n        /* \"#utility.yul\":7068:7121   */\n      tag_325\n        /* \"#utility.yul\":7113:7120   */\n      dup6\n        /* \"#utility.yul\":7104:7110   */\n      dup3\n        /* \"#utility.yul\":7093:7102   */\n      dup7\n        /* \"#utility.yul\":7089:7111   */\n      add\n        /* \"#utility.yul\":7068:7121   */\n      tag_228\n      jump\t// in\n    tag_325:\n        /* \"#utility.yul\":7058:7121   */\n      swap2\n      pop\n        /* \"#utility.yul\":7013:7131   */\n      pop\n        /* \"#utility.yul\":6454:7138   */\n      swap3\n      pop\n      swap3\n      swap1\n      pop\n      jump\t// out\n        /* \"#utility.yul\":7144:7262   */\n    tag_233:\n        /* \"#utility.yul\":7231:7255   */\n      tag_327\n        /* \"#utility.yul\":7249:7254   */\n      dup2\n        /* \"#utility.yul\":7231:7255   */\n      tag_226\n      jump\t// in\n    tag_327:\n        /* \"#utility.yul\":7226:7229   */\n      dup3\n        /* \"#utility.yul\":7219:7256   */\n      mstore\n        /* \"#utility.yul\":7144:7262   */\n      pop\n      pop\n      jump\t// out\n        /* \"#utility.yul\":7268:7490   */\n    tag_24:\n        /* \"#utility.yul\":7361:7365   */\n      0x00\n        /* \"#utility.yul\":7399:7401   */\n      0x20\n        /* \"#utility.yul\":7388:7397   */\n      dup3\n        /* \"#utility.yul\":7384:7402   */\n      add\n        /* \"#utility.yul\":7376:7402   */\n      swap1\n      pop\n        /* \"#utility.yul\":7412:7483   */\n      tag_329\n        /* \"#utility.yul\":7480:7481   */\n      0x00\n        /* \"#utility.yul\":7469:7478   */\n      dup4\n        /* \"#utility.yul\":7465:7482   */\n      add\n        /* \"#utility.yul\":7456:7462   */\n      dup5\n        /* \"#utility.yul\":7412:7483   */\n      tag_233\n      jump\t// in\n    tag_329:\n        /* \"#utility.yul\":7268:7490   */\n      swap3\n      swap2\n      pop\n      pop\n      jump\t// out\n        /* \"#utility.yul\":7496:8390   */\n    tag_31:\n        /* \"#utility.yul\":7614:7620   */\n      0x00\n        /* \"#utility.yul\":7622:7628   */\n      0x00\n        /* \"#utility.yul\":7671:7673   */\n      0x40\n        /* \"#utility.yul\":7659:7668   */\n      dup4\n        /* \"#utility.yul\":7650:7657   */\n      dup6\n        /* \"#utility.yul\":7646:7669   */\n      sub\n        /* \"#utility.yul\":7642:7674   */\n      slt\n        /* \"#utility.yul\":7639:7758   */\n      iszero\n      tag_331\n      jumpi\n        /* \"#utility.yul\":7677:7756   */\n      tag_332\n      tag_211\n      jump\t// in\n    tag_332:\n        /* \"#utility.yul\":7639:7758   */\n    tag_331:\n        /* \"#utility.yul\":7825:7826   */\n      0x00\n        /* \"#utility.yul\":7814:7823   */\n      dup4\n        /* \"#utility.yul\":7810:7827   */\n      add\n        /* \"#utility.yul\":7797:7828   */\n      calldataload\n        /* \"#utility.yul\":7855:7873   */\n      0xffffffffffffffff\n        /* \"#utility.yul\":7847:7853   */\n      dup2\n        /* \"#utility.yul\":7844:7874   */\n      gt\n        /* \"#utility.yul\":7841:7958   */\n      iszero\n      tag_333\n      jumpi\n        /* \"#utility.yul\":7877:7956   */\n      tag_334\n      tag_212\n      jump\t// in\n    tag_334:\n        /* \"#utility.yul\":7841:7958   */\n    tag_333:\n        /* \"#utility.yul\":7982:8060   */\n      tag_335\n        /* \"#utility.yul\":8052:8059   */\n      dup6\n        /* \"#utility.yul\":8043:8049   */\n      dup3\n        /* \"#utility.yul\":8032:8041   */\n      dup7\n        /* \"#utility.yul\":8028:8050   */\n      add\n        /* \"#utility.yul\":7982:8060   */\n      tag_232\n      jump\t// in\n    tag_335:\n        /* \"#utility.yul\":7972:8060   */\n      swap3\n      pop\n        /* \"#utility.yul\":7768:8070   */\n      pop\n        /* \"#utility.yul\":8137:8139   */\n      0x20\n        /* \"#utility.yul\":8126:8135   */\n      dup4\n        /* \"#utility.yul\":8122:8140   */\n      add\n        /* \"#utility.yul\":8109:8141   */\n      calldataload\n        /* \"#utility.yul\":8168:8186   */\n      0xffffffffffffffff\n        /* \"#utility.yul\":8160:8166   */\n      dup2\n        /* \"#utility.yul\":8157:8187   */\n      gt\n        /* \"#utility.yul\":8154:8271   */\n      iszero\n      tag_336\n      jumpi\n        /* \"#utility.yul\":8190:8269   */\n      tag_337\n      tag_212\n      jump\t// in\n    tag_337:\n        /* \"#utility.yul\":8154:8271   */\n    tag_336:\n        /* \"#utility.yul\":8295:8373   */\n      tag_338\n        /* \"#utility.yul\":8365:8372   */\n      dup6\n        /* \"#utility.yul\":8356:8362   */\n      dup3\n        /* \"#utility.yul\":8345:8354   */\n      dup7\n        /* \"#utility.yul\":8341:8363   */\n      add\n        /* \"#utility.yul\":8295:8373   */\n      tag_232\n      jump\t// in\n    tag_338:\n        /* \"#utility.yul\":8285:8373   */\n      swap2\n      pop\n        /* \"#utility.yul\":8080:8383   */\n      pop\n        /* \"#utility.yul\":7496:8390   */\n      swap3\n      pop\n      swap3\n      swap1\n      pop\n      jump\t// out\n        /* \"#utility.yul\":8396:8510   */\n    tag_234:\n        /* \"#utility.yul\":8463:8469   */\n      0x00\n        /* \"#utility.yul\":8497:8502   */\n      dup2\n        /* \"#utility.yul\":8491:8503   */\n      mload\n        /* \"#utility.yul\":8481:8503   */\n      swap1\n      pop\n        /* \"#utility.yul\":8396:8510   */\n      swap2\n      swap1\n      pop\n      jump\t// out\n        /* \"#utility.yul\":8516:8700   */\n    tag_235:\n        /* \"#utility.yul\":8615:8626   */\n      0x00\n        /* \"#utility.yul\":8649:8655   */\n      dup3\n        /* \"#utility.yul\":8644:8647   */\n      dup3\n        /* \"#utility.yul\":8637:8656   */\n      mstore\n        /* \"#utility.yul\":8689:8693   */\n      0x20\n        /* \"#utility.yul\":8684:8687   */\n      dup3\n        /* \"#utility.yul\":8680:8694   */\n      add\n        /* \"#utility.yul\":8665:8694   */\n      swap1\n      pop\n        /* \"#utility.yul\":8516:8700   */\n      swap3\n      swap2\n      pop\n      pop\n      jump\t// out\n        /* \"#utility.yul\":8706:8838   */\n    tag_236:\n        /* \"#utility.yul\":8773:8777   */\n      0x00\n        /* \"#utility.yul\":8796:8799   */\n      dup2\n        /* \"#utility.yul\":8788:8799   */\n      swap1\n      pop\n        /* \"#utility.yul\":8826:8830   */\n      0x20\n        /* \"#utility.yul\":8821:8824   */\n      dup3\n        /* \"#utility.yul\":8817:8831   */\n      add\n        /* \"#utility.yul\":8809:8831   */\n      swap1\n      pop\n        /* \"#utility.yul\":8706:8838   */\n      swap2\n      swap1\n      pop\n      jump\t// out\n        /* \"#utility.yul\":8844:8952   */\n    tag_237:\n        /* \"#utility.yul\":8921:8945   */\n      tag_343\n        /* \"#utility.yul\":8939:8944   */\n      dup2\n        /* \"#utility.yul\":8921:8945   */\n      tag_226\n      jump\t// in\n    tag_343:\n        /* \"#utility.yul\":8916:8919   */\n      dup3\n        /* \"#utility.yul\":8909:8946   */\n      mstore\n        /* \"#utility.yul\":8844:8952   */\n      pop\n      pop\n      jump\t// out\n        /* \"#utility.yul\":8958:9137   */\n    tag_238:\n        /* \"#utility.yul\":9027:9037   */\n      0x00\n        /* \"#utility.yul\":9048:9094   */\n      tag_345\n        /* \"#utility.yul\":9090:9093   */\n      dup4\n        /* \"#utility.yul\":9082:9088   */\n      dup4\n        /* \"#utility.yul\":9048:9094   */\n      tag_237\n      jump\t// in\n    tag_345:\n        /* \"#utility.yul\":9126:9130   */\n      0x20\n        /* \"#utility.yul\":9121:9124   */\n      dup4\n        /* \"#utility.yul\":9117:9131   */\n      add\n        /* \"#utility.yul\":9103:9131   */\n      swap1\n      pop\n        /* \"#utility.yul\":8958:9137   */\n      swap3\n      swap2\n      pop\n      pop\n      jump\t// out\n        /* \"#utility.yul\":9143:9256   */\n    tag_239:\n        /* \"#utility.yul\":9213:9217   */\n      0x00\n        /* \"#utility.yul\":9245:9249   */\n      0x20\n        /* \"#utility.yul\":9240:9243   */\n      dup3\n        /* \"#utility.yul\":9236:9250   */\n      add\n        /* \"#utility.yul\":9228:9250   */\n      swap1\n      pop\n        /* \"#utility.yul\":9143:9256   */\n      swap2\n      swap1\n      pop\n      jump\t// out\n        /* \"#utility.yul\":9292:10024   */\n    tag_240:\n        /* \"#utility.yul\":9411:9414   */\n      0x00\n        /* \"#utility.yul\":9440:9494   */\n      tag_348\n        /* \"#utility.yul\":9488:9493   */\n      dup3\n        /* \"#utility.yul\":9440:9494   */\n      tag_234\n      jump\t// in\n    tag_348:\n        /* \"#utility.yul\":9510:9596   */\n      tag_349\n        /* \"#utility.yul\":9589:9595   */\n      dup2\n        /* \"#utility.yul\":9584:9587   */\n      dup6\n        /* \"#utility.yul\":9510:9596   */\n      tag_235\n      jump\t// in\n    tag_349:\n        /* \"#utility.yul\":9503:9596   */\n      swap4\n      pop\n        /* \"#utility.yul\":9620:9676   */\n      tag_350\n        /* \"#utility.yul\":9670:9675   */\n      dup4\n        /* \"#utility.yul\":9620:9676   */\n      tag_236\n      jump\t// in\n    tag_350:\n        /* \"#utility.yul\":9699:9706   */\n      dup1\n        /* \"#utility.yul\":9730:9731   */\n      0x00\n        /* \"#utility.yul\":9715:9999   */\n    tag_351:\n        /* \"#utility.yul\":9740:9746   */\n      dup4\n        /* \"#utility.yul\":9737:9738   */\n      dup2\n        /* \"#utility.yul\":9734:9747   */\n      lt\n        /* \"#utility.yul\":9715:9999   */\n      iszero\n      tag_353\n      jumpi\n        /* \"#utility.yul\":9816:9822   */\n      dup2\n        /* \"#utility.yul\":9810:9823   */\n      mload\n        /* \"#utility.yul\":9843:9906   */\n      tag_354\n        /* \"#utility.yul\":9902:9905   */\n      dup9\n        /* \"#utility.yul\":9887:9900   */\n      dup3\n        /* \"#utility.yul\":9843:9906   */\n      tag_238\n      jump\t// in\n    tag_354:\n        /* \"#utility.yul\":9836:9906   */\n      swap8\n      pop\n        /* \"#utility.yul\":9929:9989   */\n      tag_355\n        /* \"#utility.yul\":9982:9988   */\n      dup4\n        /* \"#utility.yul\":9929:9989   */\n      tag_239\n      jump\t// in\n    tag_355:\n        /* \"#utility.yul\":9919:9989   */\n      swap3\n      pop\n        /* \"#utility.yul\":9775:9999   */\n      pop\n        /* \"#utility.yul\":9762:9763   */\n      0x01\n        /* \"#utility.yul\":9759:9760   */\n      dup2\n        /* \"#utility.yul\":9755:9764   */\n      add\n        /* \"#utility.yul\":9750:9764   */\n      swap1\n      pop\n        /* \"#utility.yul\":9715:9999   */\n      jump(tag_351)\n    tag_353:\n        /* \"#utility.yul\":9719:9733   */\n      pop\n        /* \"#utility.yul\":10015:10018   */\n      dup6\n        /* \"#utility.yul\":10008:10018   */\n      swap4\n      pop\n        /* \"#utility.yul\":9416:10024   */\n      pop\n      pop\n      pop\n        /* \"#utility.yul\":9292:10024   */\n      swap3\n      swap2\n      pop\n      pop\n      jump\t// out\n        /* \"#utility.yul\":10030:10403   */\n    tag_34:\n        /* \"#utility.yul\":10173:10177   */\n      0x00\n        /* \"#utility.yul\":10211:10213   */\n      0x20\n        /* \"#utility.yul\":10200:10209   */\n      dup3\n        /* \"#utility.yul\":10196:10214   */\n      add\n        /* \"#utility.yul\":10188:10214   */\n      swap1\n      pop\n        /* \"#utility.yul\":10260:10269   */\n      dup2\n        /* \"#utility.yul\":10254:10258   */\n      dup2\n        /* \"#utility.yul\":10250:10270   */\n      sub\n        /* \"#utility.yul\":10246:10247   */\n      0x00\n        /* \"#utility.yul\":10235:10244   */\n      dup4\n        /* \"#utility.yul\":10231:10248   */\n      add\n        /* \"#utility.yul\":10224:10271   */\n      mstore\n        /* \"#utility.yul\":10288:10396   */\n      tag_357\n        /* \"#utility.yul\":10391:10395   */\n      dup2\n        /* \"#utility.yul\":10382:10388   */\n      dup5\n        /* \"#utility.yul\":10288:10396   */\n      tag_240\n      jump\t// in\n    tag_357:\n        /* \"#utility.yul\":10280:10396   */\n      swap1\n      pop\n        /* \"#utility.yul\":10030:10403   */\n      swap3\n      swap2\n      pop\n      pop\n      jump\t// out\n        /* \"#utility.yul\":10409:10589   */\n    tag_45:\n        /* \"#utility.yul\":10457:10534   */\n      0x4e487b7100000000000000000000000000000000000000000000000000000000\n        /* \"#utility.yul\":10454:10455   */\n      0x00\n        /* \"#utility.yul\":10447:10535   */\n      mstore\n        /* \"#utility.yul\":10554:10558   */\n      0x32\n        /* \"#utility.yul\":10551:10552   */\n      0x04\n        /* \"#utility.yul\":10544:10559   */\n      mstore\n        /* \"#utility.yul\":10578:10582   */\n      0x24\n        /* \"#utility.yul\":10575:10576   */\n      0x00\n        /* \"#utility.yul\":10568:10583   */\n      revert\n        /* \"#utility.yul\":10595:10775   */\n    tag_241:\n        /* \"#utility.yul\":10643:10720   */\n      0x4e487b7100000000000000000000000000000000000000000000000000000000\n        /* \"#utility.yul\":10640:10641   */\n      0x00\n        /* \"#utility.yul\":10633:10721   */\n      mstore\n        /* \"#utility.yul\":10740:10744   */\n      0x11\n        /* \"#utility.yul\":10737:10738   */\n      0x04\n        /* \"#utility.yul\":10730:10745   */\n      mstore\n        /* \"#utility.yul\":10764:10768   */\n      0x24\n        /* \"#utility.yul\":10761:10762   */\n      0x00\n        /* \"#utility.yul\":10754:10769   */\n      revert\n        /* \"#utility.yul\":10781:10975   */\n    tag_47:\n        /* \"#utility.yul\":10821:10825   */\n      0x00\n        /* \"#utility.yul\":10841:10861   */\n      tag_361\n        /* \"#utility.yul\":10859:10860   */\n      dup3\n        /* \"#utility.yul\":10841:10861   */\n      tag_226\n      jump\t// in\n    tag_361:\n        /* \"#utility.yul\":10836:10861   */\n      swap2\n      pop\n        /* \"#utility.yul\":10875:10895   */\n      tag_362\n        /* \"#utility.yul\":10893:10894   */\n      dup4\n        /* \"#utility.yul\":10875:10895   */\n      tag_226\n      jump\t// in\n    tag_362:\n        /* \"#utility.yul\":10870:10895   */\n      swap3\n      pop\n        /* \"#utility.yul\":10919:10920   */\n      dup3\n        /* \"#utility.yul\":10916:10917   */\n      dup3\n        /* \"#utility.yul\":10912:10921   */\n      sub\n        /* \"#utility.yul\":10904:10921   */\n      swap1\n      pop\n        /* \"#utility.yul\":10943:10944   */\n      dup2\n        /* \"#utility.yul\":10937:10941   */\n      dup2\n        /* \"#utility.yul\":10934:10945   */\n      gt\n        /* \"#utility.yul\":10931:10968   */\n      iszero\n      tag_363\n      jumpi\n        /* \"#utility.yul\":10948:10966   */\n      tag_364\n      tag_241\n      jump\t// in\n    tag_364:\n        /* \"#utility.yul\":10931:10968   */\n    tag_363:\n        /* \"#utility.yul\":10781:10975   */\n      swap3\n      swap2\n      pop\n      pop\n      jump\t// out\n        /* \"#utility.yul\":10981:11201   */\n    tag_242:\n        /* \"#utility.yul\":11121:11155   */\n      0x4e756d626572206d757374206265206265747765656e203120616e6420333939\n        /* \"#utility.yul\":11117:11118   */\n      0x00\n        /* \"#utility.yul\":11109:11115   */\n      dup3\n        /* \"#utility.yul\":11105:11119   */\n      add\n        /* \"#utility.yul\":11098:11156   */\n      mstore\n        /* \"#utility.yul\":11190:11193   */\n      0x3900000000000000000000000000000000000000000000000000000000000000\n        /* \"#utility.yul\":11185:11187   */\n      0x20\n        /* \"#utility.yul\":11177:11183   */\n      dup3\n        /* \"#utility.yul\":11173:11188   */\n      add\n        /* \"#utility.yul\":11166:11194   */\n      mstore\n        /* \"#utility.yul\":10981:11201   */\n      pop\n      jump\t// out\n        /* \"#utility.yul\":11207:11573   */\n    tag_243:\n        /* \"#utility.yul\":11349:11352   */\n      0x00\n        /* \"#utility.yul\":11370:11437   */\n      tag_367\n        /* \"#utility.yul\":11434:11436   */\n      0x21\n        /* \"#utility.yul\":11429:11432   */\n      dup4\n        /* \"#utility.yul\":11370:11437   */\n      tag_223\n      jump\t// in\n    tag_367:\n        /* \"#utility.yul\":11363:11437   */\n      swap2\n      pop\n        /* \"#utility.yul\":11446:11539   */\n      tag_368\n        /* \"#utility.yul\":11535:11538   */\n      dup3\n        /* \"#utility.yul\":11446:11539   */\n      tag_242\n      jump\t// in\n    tag_368:\n        /* \"#utility.yul\":11564:11566   */\n      0x40\n        /* \"#utility.yul\":11559:11562   */\n      dup3\n        /* \"#utility.yul\":11555:11567   */\n      add\n        /* \"#utility.yul\":11548:11567   */\n      swap1\n      pop\n        /* \"#utility.yul\":11207:11573   */\n      swap2\n      swap1\n      pop\n      jump\t// out\n        /* \"#utility.yul\":11579:11998   */\n    tag_55:\n        /* \"#utility.yul\":11745:11749   */\n      0x00\n        /* \"#utility.yul\":11783:11785   */\n      0x20\n        /* \"#utility.yul\":11772:11781   */\n      dup3\n        /* \"#utility.yul\":11768:11786   */\n      add\n        /* \"#utility.yul\":11760:11786   */\n      swap1\n      pop\n        /* \"#utility.yul\":11832:11841   */\n      dup2\n        /* \"#utility.yul\":11826:11830   */\n      dup2\n        /* \"#utility.yul\":11822:11842   */\n      sub\n        /* \"#utility.yul\":11818:11819   */\n      0x00\n        /* \"#utility.yul\":11807:11816   */\n      dup4\n        /* \"#utility.yul\":11803:11820   */\n      add\n        /* \"#utility.yul\":11796:11843   */\n      mstore\n        /* \"#utility.yul\":11860:11991   */\n      tag_370\n        /* \"#utility.yul\":11986:11990   */\n      dup2\n        /* \"#utility.yul\":11860:11991   */\n      tag_243\n      jump\t// in\n    tag_370:\n        /* \"#utility.yul\":11852:11991   */\n      swap1\n      pop\n        /* \"#utility.yul\":11579:11998   */\n      swap2\n      swap1\n      pop\n      jump\t// out\n        /* \"#utility.yul\":12004:12152   */\n    tag_244:\n        /* \"#utility.yul\":12106:12117   */\n      0x00\n        /* \"#utility.yul\":12143:12146   */\n      dup2\n        /* \"#utility.yul\":12128:12146   */\n      swap1\n      pop\n        /* \"#utility.yul\":12004:12152   */\n      swap3\n      swap2\n      pop\n      pop\n      jump\t// out\n        /* \"#utility.yul\":12158:12548   */\n    tag_245:\n        /* \"#utility.yul\":12264:12267   */\n      0x00\n        /* \"#utility.yul\":12292:12331   */\n      tag_373\n        /* \"#utility.yul\":12325:12330   */\n      dup3\n        /* \"#utility.yul\":12292:12331   */\n      tag_222\n      jump\t// in\n    tag_373:\n        /* \"#utility.yul\":12347:12436   */\n      tag_374\n        /* \"#utility.yul\":12429:12435   */\n      dup2\n        /* \"#utility.yul\":12424:12427   */\n      dup6\n        /* \"#utility.yul\":12347:12436   */\n      tag_244\n      jump\t// in\n    tag_374:\n        /* \"#utility.yul\":12340:12436   */\n      swap4\n      pop\n        /* \"#utility.yul\":12445:12510   */\n      tag_375\n        /* \"#utility.yul\":12503:12509   */\n      dup2\n        /* \"#utility.yul\":12498:12501   */\n      dup6\n        /* \"#utility.yul\":12491:12495   */\n      0x20\n        /* \"#utility.yul\":12484:12489   */\n      dup7\n        /* \"#utility.yul\":12480:12496   */\n      add\n        /* \"#utility.yul\":12445:12510   */\n      tag_224\n      jump\t// in\n    tag_375:\n        /* \"#utility.yul\":12535:12541   */\n      dup1\n        /* \"#utility.yul\":12530:12533   */\n      dup5\n        /* \"#utility.yul\":12526:12542   */\n      add\n        /* \"#utility.yul\":12519:12542   */\n      swap2\n      pop\n        /* \"#utility.yul\":12268:12548   */\n      pop\n        /* \"#utility.yul\":12158:12548   */\n      swap3\n      swap2\n      pop\n      pop\n      jump\t// out\n        /* \"#utility.yul\":12554:12989   */\n    tag_125:\n        /* \"#utility.yul\":12734:12737   */\n      0x00\n        /* \"#utility.yul\":12756:12851   */\n      tag_377\n        /* \"#utility.yul\":12847:12850   */\n      dup3\n        /* \"#utility.yul\":12838:12844   */\n      dup6\n        /* \"#utility.yul\":12756:12851   */\n      tag_245\n      jump\t// in\n    tag_377:\n        /* \"#utility.yul\":12749:12851   */\n      swap2\n      pop\n        /* \"#utility.yul\":12868:12963   */\n      tag_378\n        /* \"#utility.yul\":12959:12962   */\n      dup3\n        /* \"#utility.yul\":12950:12956   */\n      dup5\n        /* \"#utility.yul\":12868:12963   */\n      tag_245\n      jump\t// in\n    tag_378:\n        /* \"#utility.yul\":12861:12963   */\n      swap2\n      pop\n        /* \"#utility.yul\":12980:12983   */\n      dup2\n        /* \"#utility.yul\":12973:12983   */\n      swap1\n      pop\n        /* \"#utility.yul\":12554:12989   */\n      swap4\n      swap3\n      pop\n      pop\n      pop\n      jump\t// out\n        /* \"#utility.yul\":12995:13186   */\n    tag_134:\n        /* \"#utility.yul\":13035:13038   */\n      0x00\n        /* \"#utility.yul\":13054:13074   */\n      tag_380\n        /* \"#utility.yul\":13072:13073   */\n      dup3\n        /* \"#utility.yul\":13054:13074   */\n      tag_226\n      jump\t// in\n    tag_380:\n        /* \"#utility.yul\":13049:13074   */\n      swap2\n      pop\n        /* \"#utility.yul\":13088:13108   */\n      tag_381\n        /* \"#utility.yul\":13106:13107   */\n      dup4\n        /* \"#utility.yul\":13088:13108   */\n      tag_226\n      jump\t// in\n    tag_381:\n        /* \"#utility.yul\":13083:13108   */\n      swap3\n      pop\n        /* \"#utility.yul\":13131:13132   */\n      dup3\n        /* \"#utility.yul\":13128:13129   */\n      dup3\n        /* \"#utility.yul\":13124:13133   */\n      add\n        /* \"#utility.yul\":13117:13133   */\n      swap1\n      pop\n        /* \"#utility.yul\":13152:13155   */\n      dup1\n        /* \"#utility.yul\":13149:13150   */\n      dup3\n        /* \"#utility.yul\":13146:13156   */\n      gt\n        /* \"#utility.yul\":13143:13179   */\n      iszero\n      tag_382\n      jumpi\n        /* \"#utility.yul\":13159:13177   */\n      tag_383\n      tag_241\n      jump\t// in\n    tag_383:\n        /* \"#utility.yul\":13143:13179   */\n    tag_382:\n        /* \"#utility.yul\":12995:13186   */\n      swap3\n      swap2\n      pop\n      pop\n      jump\t// out\n        /* \"#utility.yul\":13192:13363   */\n    tag_149:\n        /* \"#utility.yul\":13231:13234   */\n      0x00\n        /* \"#utility.yul\":13254:13278   */\n      tag_385\n        /* \"#utility.yul\":13272:13277   */\n      dup3\n        /* \"#utility.yul\":13254:13278   */\n      tag_226\n      jump\t// in\n    tag_385:\n        /* \"#utility.yul\":13245:13278   */\n      swap2\n      pop\n        /* \"#utility.yul\":13300:13304   */\n      0x00\n        /* \"#utility.yul\":13293:13298   */\n      dup3\n        /* \"#utility.yul\":13290:13305   */\n      sub\n        /* \"#utility.yul\":13287:13328   */\n      tag_386\n      jumpi\n        /* \"#utility.yul\":13308:13326   */\n      tag_387\n      tag_241\n      jump\t// in\n    tag_387:\n        /* \"#utility.yul\":13287:13328   */\n    tag_386:\n        /* \"#utility.yul\":13355:13356   */\n      0x01\n        /* \"#utility.yul\":13348:13353   */\n      dup3\n        /* \"#utility.yul\":13344:13357   */\n      sub\n        /* \"#utility.yul\":13337:13357   */\n      swap1\n      pop\n        /* \"#utility.yul\":13192:13363   */\n      swap2\n      swap1\n      pop\n      jump\t// out\n        /* \"#utility.yul\":13369:13602   */\n    tag_174:\n        /* \"#utility.yul\":13408:13411   */\n      0x00\n        /* \"#utility.yul\":13431:13455   */\n      tag_389\n        /* \"#utility.yul\":13449:13454   */\n      dup3\n        /* \"#utility.yul\":13431:13455   */\n      tag_226\n      jump\t// in\n    tag_389:\n        /* \"#utility.yul\":13422:13455   */\n      swap2\n      pop\n        /* \"#utility.yul\":13477:13543   */\n      0xffffffffffffffffffffffffffffffffffffffffffffffffffffffffffffffff\n        /* \"#utility.yul\":13470:13475   */\n      dup3\n        /* \"#utility.yul\":13467:13544   */\n      sub\n        /* \"#utility.yul\":13464:13567   */\n      tag_390\n      jumpi\n        /* \"#utility.yul\":13547:13565   */\n      tag_391\n      tag_241\n      jump\t// in\n    tag_391:\n        /* \"#utility.yul\":13464:13567   */\n    tag_390:\n        /* \"#utility.yul\":13594:13595   */\n      0x01\n        /* \"#utility.yul\":13587:13592   */\n      dup3\n        /* \"#utility.yul\":13583:13596   */\n      add\n        /* \"#utility.yul\":13576:13596   */\n      swap1\n      pop\n        /* \"#utility.yul\":13369:13602   */\n      swap2\n      swap1\n      pop\n      jump\t// out\n\n    auxdata: 0xa2646970667358221220ea31d4622edd9a7da5a9d7dec96367b5afb42d79c870f147319f2473ab4f9f0764736f6c634300081e0033\n}\n",
				"bytecode": {
					"linkReferences": {},
					"object": "6080604052348015600e575f5ffd5b5061163e8061001c5f395ff3fe608060405234801561000f575f5ffd5b5060043610610055575f3560e01c8063064767aa146100595780630cbc513a1461008957806331877984146100b9578063cb159dfe146100e9578063d2f145d014610119575b5f5ffd5b610073600480360381019061006e9190611037565b610149565b60405161008091906110de565b60405180910390f35b6100a3600480360381019061009e9190611131565b61023e565b6040516100b091906110de565b60405180910390f35b6100d360048036038101906100ce9190611220565b610a0a565b6040516100e09190611289565b60405180910390f35b61010360048036038101906100fe9190611037565b610ad4565b6040516101109190611289565b60405180910390f35b610133600480360381019061012e91906112a2565b610c17565b60405161014091906113cf565b60405180910390f35b60605f8290505f815190505f8167ffffffffffffffff81111561016f5761016e610f13565b5b6040519080825280601f01601f1916602001820160405280156101a15781602001600182028036833780820191505090505b5090505f5f90505b82811015610232578381815181106101c4576101c36113ef565b5b602001015160f81c60f81b82826001866101de9190611449565b6101e89190611449565b815181106101f9576101f86113ef565b5b60200101907effffffffffffffffffffffffffffffffffffffffffffffffffffffffffffff191690815f1a9053508060010190506101a9565b50809350505050919050565b60605f821180156102515750610f9f8211155b610290576040517f08c379a0000000000000000000000000000000000000000000000000000000008152600401610287906114ec565b60405180910390fd5b5f600d67ffffffffffffffff8111156102ac576102ab610f13565b5b6040519080825280602002602001820160405280156102da5781602001602082028036833780820191505090505b5090506103e8815f815181106102f3576102f26113ef565b5b60200260200101818152505061038481600181518110610316576103156113ef565b5b6020026020010181815250506101f481600281518110610339576103386113ef565b5b6020026020010181815250506101908160038151811061035c5761035b6113ef565b5b60200260200101818152505060648160048151811061037e5761037d6113ef565b5b602002602001018181525050605a816005815181106103a05761039f6113ef565b5b6020026020010181815250506032816006815181106103c2576103c16113ef565b5b6020026020010181815250506028816007815181106103e4576103e36113ef565b5b602002602001018181525050600a81600881518110610406576104056113ef565b5b602002602001018181525050600981600981518110610428576104276113ef565b5b602002602001018181525050600581600a8151811061044a576104496113ef565b5b602002602001018181525050600481600b8151811061046c5761046b6113ef565b5b602002602001018181525050600181600c8151811061048e5761048d6113ef565b5b6020026020010181815250505f600d67ffffffffffffffff8111156104b6576104b5610f13565b5b6040519080825280602002602001820160405280156104e957816020015b60608152602001906001900390816104d45790505b5090506040518060400160405280600181526020017f4d00000000000000000000000000000000000000000000000000000000000000815250815f81518110610535576105346113ef565b5b60200260200101819052506040518060400160405280600281526020017f434d0000000000000000000000000000000000000000000000000000000000008152508160018151811061058a576105896113ef565b5b60200260200101819052506040518060400160405280600181526020017f4400000000000000000000000000000000000000000000000000000000000000815250816002815181106105df576105de6113ef565b5b60200260200101819052506040518060400160405280600281526020017f434400000000000000000000000000000000000000000000000000000000000081525081600381518110610634576106336113ef565b5b60200260200101819052506040518060400160405280600181526020017f430000000000000000000000000000000000000000000000000000000000000081525081600481518110610689576106886113ef565b5b60200260200101819052506040518060400160405280600281526020017f5843000000000000000000000000000000000000000000000000000000000000815250816005815181106106de576106dd6113ef565b5b60200260200101819052506040518060400160405280600181526020017f4c0000000000000000000000000000000000000000000000000000000000000081525081600681518110610733576107326113ef565b5b60200260200101819052506040518060400160405280600281526020017f584c00000000000000000000000000000000000000000000000000000000000081525081600781518110610788576107876113ef565b5b60200260200101819052506040518060400160405280600181526020017f5800000000000000000000000000000000000000000000000000000000000000815250816008815181106107dd576107dc6113ef565b5b60200260200101819052506040518060400160405280600281526020017f495800000000000000000000000000000000000000000000000000000000000081525081600981518110610832576108316113ef565b5b60200260200101819052506040518060400160405280600181526020017f560000000000000000000000000000000000000000000000000000000000000081525081600a81518110610887576108866113ef565b5b60200260200101819052506040518060400160405280600281526020017f495600000000000000000000000000000000000000000000000000000000000081525081600b815181106108dc576108db6113ef565b5b60200260200101819052506040518060400160405280600181526020017f490000000000000000000000000000000000000000000000000000000000000081525081600c81518110610931576109306113ef565b5b60200260200101819052505f60405180602001604052805f81525090505f5f90505b83518110156109fe575b85848281518110610971576109706113ef565b5b6020026020010151116109e95781838281518110610992576109916113ef565b5b60200260200101516040516020016109ab929190611544565b60405160208183030381529060405291508381815181106109cf576109ce6113ef565b5b6020026020010151866109e29190611449565b955061095d565b5f8603156109fe578080600101915050610953565b50809350505050919050565b5f5f5f90505f845190505b80821015610a70575f60018284610a2c9190611567565b901c905084868281518110610a4457610a436113ef565b5b60200260200101511115610a6657600181610a5f9190611567565b9250610a6a565b8091505b50610a15565b845182108015610a99575083858381518110610a8f57610a8e6113ef565b5b6020026020010151145b15610aa8578192505050610ace565b7fffffffffffffffffffffffffffffffffffffffffffffffffffffffffffffffff925050505b92915050565b5f5f5f5f90505f6040518060400160405280600781526020017f4344494c4d56580000000000000000000000000000000000000000000000000081525090505f6040518060e00160405280606461ffff1681526020016101f461ffff168152602001600161ffff168152602001603261ffff1681526020016103e861ffff168152602001600561ffff168152602001600a61ffff1681525090505f865190505f8790505f8290505b5f811115610c085780610b8e9061159a565b90505f84610bb987858581518110610ba957610ba86113ef565b5b602001015160f81c60f81b610e46565b60078110610bca57610bc96113ef565b5b602002015161ffff16905086811015610bf0578088610be99190611449565b9750610bff565b8088610bfc9190611567565b97505b80965050610b7c565b50859650505050505050919050565b60605f835190505f835190508082610c2f9190611567565b67ffffffffffffffff811115610c4857610c47610f13565b5b604051908082528060200260200182016040528015610c765781602001602082028036833780820191505090505b5092505f5f5f5b8483108015610c8b57508382105b15610d7b57868281518110610ca357610ca26113ef565b5b6020026020010151888481518110610cbe57610cbd6113ef565b5b60200260200101511015610d2357878380610cd8906115c1565b945081518110610ceb57610cea6113ef565b5b6020026020010151868280610cff906115c1565b935081518110610d1257610d116113ef565b5b602002602001018181525050610d76565b868280610d2f906115c1565b935081518110610d4257610d416113ef565b5b6020026020010151868280610d56906115c1565b935081518110610d6957610d686113ef565b5b6020026020010181815250505b610c7d565b5b84831015610ddb57878380610d90906115c1565b945081518110610da357610da26113ef565b5b6020026020010151868280610db7906115c1565b935081518110610dca57610dc96113ef565b5b602002602001018181525050610d7c565b5b83821015610e3b57868280610df0906115c1565b935081518110610e0357610e026113ef565b5b6020026020010151868280610e17906115c1565b935081518110610e2a57610e296113ef565b5b602002602001018181525050610ddc565b505050505092915050565b5f5f8390505f815190505f5f90505b81811015610edd57828181518110610e7057610e6f6113ef565b5b602001015160f81c60f81b7effffffffffffffffffffffffffffffffffffffffffffffffffffffffffffff1916857effffffffffffffffffffffffffffffffffffffffffffffffffffffffffffff191603610ed057809350505050610ee4565b8080600101915050610e55565b505f925050505b92915050565b5f604051905090565b5f5ffd5b5f5ffd5b5f5ffd5b5f5ffd5b5f601f19601f8301169050919050565b7f4e487b71000000000000000000000000000000000000000000000000000000005f52604160045260245ffd5b610f4982610f03565b810181811067ffffffffffffffff82111715610f6857610f67610f13565b5b80604052505050565b5f610f7a610eea565b9050610f868282610f40565b919050565b5f67ffffffffffffffff821115610fa557610fa4610f13565b5b610fae82610f03565b9050602081019050919050565b828183375f83830152505050565b5f610fdb610fd684610f8b565b610f71565b905082815260208101848484011115610ff757610ff6610eff565b5b611002848285610fbb565b509392505050565b5f82601f83011261101e5761101d610efb565b5b813561102e848260208601610fc9565b91505092915050565b5f6020828403121561104c5761104b610ef3565b5b5f82013567ffffffffffffffff81111561106957611068610ef7565b5b6110758482850161100a565b91505092915050565b5f81519050919050565b5f82825260208201905092915050565b8281835e5f83830152505050565b5f6110b08261107e565b6110ba8185611088565b93506110ca818560208601611098565b6110d381610f03565b840191505092915050565b5f6020820190508181035f8301526110f681846110a6565b905092915050565b5f819050919050565b611110816110fe565b811461111a575f5ffd5b50565b5f8135905061112b81611107565b92915050565b5f6020828403121561114657611145610ef3565b5b5f6111538482850161111d565b91505092915050565b5f67ffffffffffffffff82111561117657611175610f13565b5b602082029050602081019050919050565b5f5ffd5b5f61119d6111988461115c565b610f71565b905080838252602082019050602084028301858111156111c0576111bf611187565b5b835b818110156111e957806111d5888261111d565b8452602084019350506020810190506111c2565b5050509392505050565b5f82601f83011261120757611206610efb565b5b813561121784826020860161118b565b91505092915050565b5f5f6040838503121561123657611235610ef3565b5b5f83013567ffffffffffffffff81111561125357611252610ef7565b5b61125f858286016111f3565b92505060206112708582860161111d565b9150509250929050565b611283816110fe565b82525050565b5f60208201905061129c5f83018461127a565b92915050565b5f5f604083850312156112b8576112b7610ef3565b5b5f83013567ffffffffffffffff8111156112d5576112d4610ef7565b5b6112e1858286016111f3565b925050602083013567ffffffffffffffff81111561130257611301610ef7565b5b61130e858286016111f3565b9150509250929050565b5f81519050919050565b5f82825260208201905092915050565b5f819050602082019050919050565b61134a816110fe565b82525050565b5f61135b8383611341565b60208301905092915050565b5f602082019050919050565b5f61137d82611318565b6113878185611322565b935061139283611332565b805f5b838110156113c25781516113a98882611350565b97506113b483611367565b925050600181019050611395565b5085935050505092915050565b5f6020820190508181035f8301526113e78184611373565b905092915050565b7f4e487b71000000000000000000000000000000000000000000000000000000005f52603260045260245ffd5b7f4e487b71000000000000000000000000000000000000000000000000000000005f52601160045260245ffd5b5f611453826110fe565b915061145e836110fe565b92508282039050818111156114765761147561141c565b5b92915050565b7f4e756d626572206d757374206265206265747765656e203120616e64203339395f8201527f3900000000000000000000000000000000000000000000000000000000000000602082015250565b5f6114d6602183611088565b91506114e18261147c565b604082019050919050565b5f6020820190508181035f830152611503816114ca565b9050919050565b5f81905092915050565b5f61151e8261107e565b611528818561150a565b9350611538818560208601611098565b80840191505092915050565b5f61154f8285611514565b915061155b8284611514565b91508190509392505050565b5f611571826110fe565b915061157c836110fe565b92508282019050808211156115945761159361141c565b5b92915050565b5f6115a4826110fe565b91505f82036115b6576115b561141c565b5b600182039050919050565b5f6115cb826110fe565b91507fffffffffffffffffffffffffffffffffffffffffffffffffffffffffffffffff82036115fd576115fc61141c565b5b60018201905091905056fea2646970667358221220ea31d4622edd9a7da5a9d7dec96367b5afb42d79c870f147319f2473ab4f9f0764736f6c634300081e0033",
					"opcodes": "PUSH1 0x80 PUSH1 0x40 MSTORE CALLVALUE DUP1 ISZERO PUSH1 0xE JUMPI PUSH0 PUSH0 REVERT JUMPDEST POP PUSH2 0x163E DUP1 PUSH2 0x1C PUSH0 CODECOPY PUSH0 RETURN INVALID PUSH1 0x80 PUSH1 0x40 MSTORE CALLVALUE DUP1 ISZERO PUSH2 0xF JUMPI PUSH0 PUSH0 REVERT JUMPDEST POP PUSH1 0x4 CALLDATASIZE LT PUSH2 0x55 JUMPI PUSH0 CALLDATALOAD PUSH1 0xE0 SHR DUP1 PUSH4 0x64767AA EQ PUSH2 0x59 JUMPI DUP1 PUSH4 0xCBC513A EQ PUSH2 0x89 JUMPI DUP1 PUSH4 0x31877984 EQ PUSH2 0xB9 JUMPI DUP1 PUSH4 0xCB159DFE EQ PUSH2 0xE9 JUMPI DUP1 PUSH4 0xD2F145D0 EQ PUSH2 0x119 JUMPI JUMPDEST PUSH0 PUSH0 REVERT JUMPDEST PUSH2 0x73 PUSH1 0x4 DUP1 CALLDATASIZE SUB DUP2 ADD SWAP1 PUSH2 0x6E SWAP2 SWAP1 PUSH2 0x1037 JUMP JUMPDEST PUSH2 0x149 JUMP JUMPDEST PUSH1 0x40 MLOAD PUSH2 0x80 SWAP2 SWAP1 PUSH2 0x10DE JUMP JUMPDEST PUSH1 0x40 MLOAD DUP1 SWAP2 SUB SWAP1 RETURN JUMPDEST PUSH2 0xA3 PUSH1 0x4 DUP1 CALLDATASIZE SUB DUP2 ADD SWAP1 PUSH2 0x9E SWAP2 SWAP1 PUSH2 0x1131 JUMP JUMPDEST PUSH2 0x23E JUMP JUMPDEST PUSH1 0x40 MLOAD PUSH2 0xB0 SWAP2 SWAP1 PUSH2 0x10DE JUMP JUMPDEST PUSH1 0x40 MLOAD DUP1 SWAP2 SUB SWAP1 RETURN JUMPDEST PUSH2 0xD3 PUSH1 0x4 DUP1 CALLDATASIZE SUB DUP2 ADD SWAP1 PUSH2 0xCE SWAP2 SWAP1 PUSH2 0x1220 JUMP JUMPDEST PUSH2 0xA0A JUMP JUMPDEST PUSH1 0x40 MLOAD PUSH2 0xE0 SWAP2 SWAP1 PUSH2 0x1289 JUMP JUMPDEST PUSH1 0x40 MLOAD DUP1 SWAP2 SUB SWAP1 RETURN JUMPDEST PUSH2 0x103 PUSH1 0x4 DUP1 CALLDATASIZE SUB DUP2 ADD SWAP1 PUSH2 0xFE SWAP2 SWAP1 PUSH2 0x1037 JUMP JUMPDEST PUSH2 0xAD4 JUMP JUMPDEST PUSH1 0x40 MLOAD PUSH2 0x110 SWAP2 SWAP1 PUSH2 0x1289 JUMP JUMPDEST PUSH1 0x40 MLOAD DUP1 SWAP2 SUB SWAP1 RETURN JUMPDEST PUSH2 0x133 PUSH1 0x4 DUP1 CALLDATASIZE SUB DUP2 ADD SWAP1 PUSH2 0x12E SWAP2 SWAP1 PUSH2 0x12A2 JUMP JUMPDEST PUSH2 0xC17 JUMP JUMPDEST PUSH1 0x40 MLOAD PUSH2 0x140 SWAP2 SWAP1 PUSH2 0x13CF JUMP JUMPDEST PUSH1 0x40 MLOAD DUP1 SWAP2 SUB SWAP1 RETURN JUMPDEST PUSH1 0x60 PUSH0 DUP3 SWAP1 POP PUSH0 DUP2 MLOAD SWAP1 POP PUSH0 DUP2 PUSH8 0xFFFFFFFFFFFFFFFF DUP2 GT ISZERO PUSH2 0x16F JUMPI PUSH2 0x16E PUSH2 0xF13 JUMP JUMPDEST JUMPDEST PUSH1 0x40 MLOAD SWAP1 DUP1 DUP3 MSTORE DUP1 PUSH1 0x1F ADD PUSH1 0x1F NOT AND PUSH1 0x20 ADD DUP3 ADD PUSH1 0x40 MSTORE DUP1 ISZERO PUSH2 0x1A1 JUMPI DUP2 PUSH1 0x20 ADD PUSH1 0x1 DUP3 MUL DUP1 CALLDATASIZE DUP4 CALLDATACOPY DUP1 DUP3 ADD SWAP2 POP POP SWAP1 POP JUMPDEST POP SWAP1 POP PUSH0 PUSH0 SWAP1 POP JUMPDEST DUP3 DUP2 LT ISZERO PUSH2 0x232 JUMPI DUP4 DUP2 DUP2 MLOAD DUP2 LT PUSH2 0x1C4 JUMPI PUSH2 0x1C3 PUSH2 0x13EF JUMP JUMPDEST JUMPDEST PUSH1 0x20 ADD ADD MLOAD PUSH1 0xF8 SHR PUSH1 0xF8 SHL DUP3 DUP3 PUSH1 0x1 DUP7 PUSH2 0x1DE SWAP2 SWAP1 PUSH2 0x1449 JUMP JUMPDEST PUSH2 0x1E8 SWAP2 SWAP1 PUSH2 0x1449 JUMP JUMPDEST DUP2 MLOAD DUP2 LT PUSH2 0x1F9 JUMPI PUSH2 0x1F8 PUSH2 0x13EF JUMP JUMPDEST JUMPDEST PUSH1 0x20 ADD ADD SWAP1 PUSH31 0xFFFFFFFFFFFFFFFFFFFFFFFFFFFFFFFFFFFFFFFFFFFFFFFFFFFFFFFFFFFFFF NOT AND SWAP1 DUP2 PUSH0 BYTE SWAP1 MSTORE8 POP DUP1 PUSH1 0x1 ADD SWAP1 POP PUSH2 0x1A9 JUMP JUMPDEST POP DUP1 SWAP4 POP POP POP POP SWAP2 SWAP1 POP JUMP JUMPDEST PUSH1 0x60 PUSH0 DUP3 GT DUP1 ISZERO PUSH2 0x251 JUMPI POP PUSH2 0xF9F DUP3 GT ISZERO JUMPDEST PUSH2 0x290 JUMPI PUSH1 0x40 MLOAD PUSH32 0x8C379A000000000000000000000000000000000000000000000000000000000 DUP2 MSTORE PUSH1 0x4 ADD PUSH2 0x287 SWAP1 PUSH2 0x14EC JUMP JUMPDEST PUSH1 0x40 MLOAD DUP1 SWAP2 SUB SWAP1 REVERT JUMPDEST PUSH0 PUSH1 0xD PUSH8 0xFFFFFFFFFFFFFFFF DUP2 GT ISZERO PUSH2 0x2AC JUMPI PUSH2 0x2AB PUSH2 0xF13 JUMP JUMPDEST JUMPDEST PUSH1 0x40 MLOAD SWAP1 DUP1 DUP3 MSTORE DUP1 PUSH1 0x20 MUL PUSH1 0x20 ADD DUP3 ADD PUSH1 0x40 MSTORE DUP1 ISZERO PUSH2 0x2DA JUMPI DUP2 PUSH1 0x20 ADD PUSH1 0x20 DUP3 MUL DUP1 CALLDATASIZE DUP4 CALLDATACOPY DUP1 DUP3 ADD SWAP2 POP POP SWAP1 POP JUMPDEST POP SWAP1 POP PUSH2 0x3E8 DUP2 PUSH0 DUP2 MLOAD DUP2 LT PUSH2 0x2F3 JUMPI PUSH2 0x2F2 PUSH2 0x13EF JUMP JUMPDEST JUMPDEST PUSH1 0x20 MUL PUSH1 0x20 ADD ADD DUP2 DUP2 MSTORE POP POP PUSH2 0x384 DUP2 PUSH1 0x1 DUP2 MLOAD DUP2 LT PUSH2 0x316 JUMPI PUSH2 0x315 PUSH2 0x13EF JUMP JUMPDEST JUMPDEST PUSH1 0x20 MUL PUSH1 0x20 ADD ADD DUP2 DUP2 MSTORE POP POP PUSH2 0x1F4 DUP2 PUSH1 0x2 DUP2 MLOAD DUP2 LT PUSH2 0x339 JUMPI PUSH2 0x338 PUSH2 0x13EF JUMP JUMPDEST JUMPDEST PUSH1 0x20 MUL PUSH1 0x20 ADD ADD DUP2 DUP2 MSTORE POP POP PUSH2 0x190 DUP2 PUSH1 0x3 DUP2 MLOAD DUP2 LT PUSH2 0x35C JUMPI PUSH2 0x35B PUSH2 0x13EF JUMP JUMPDEST JUMPDEST PUSH1 0x20 MUL PUSH1 0x20 ADD ADD DUP2 DUP2 MSTORE POP POP PUSH1 0x64 DUP2 PUSH1 0x4 DUP2 MLOAD DUP2 LT PUSH2 0x37E JUMPI PUSH2 0x37D PUSH2 0x13EF JUMP JUMPDEST JUMPDEST PUSH1 0x20 MUL PUSH1 0x20 ADD ADD DUP2 DUP2 MSTORE POP POP PUSH1 0x5A DUP2 PUSH1 0x5 DUP2 MLOAD DUP2 LT PUSH2 0x3A0 JUMPI PUSH2 0x39F PUSH2 0x13EF JUMP JUMPDEST JUMPDEST PUSH1 0x20 MUL PUSH1 0x20 ADD ADD DUP2 DUP2 MSTORE POP POP PUSH1 0x32 DUP2 PUSH1 0x6 DUP2 MLOAD DUP2 LT PUSH2 0x3C2 JUMPI PUSH2 0x3C1 PUSH2 0x13EF JUMP JUMPDEST JUMPDEST PUSH1 0x20 MUL PUSH1 0x20 ADD ADD DUP2 DUP2 MSTORE POP POP PUSH1 0x28 DUP2 PUSH1 0x7 DUP2 MLOAD DUP2 LT PUSH2 0x3E4 JUMPI PUSH2 0x3E3 PUSH2 0x13EF JUMP JUMPDEST JUMPDEST PUSH1 0x20 MUL PUSH1 0x20 ADD ADD DUP2 DUP2 MSTORE POP POP PUSH1 0xA DUP2 PUSH1 0x8 DUP2 MLOAD DUP2 LT PUSH2 0x406 JUMPI PUSH2 0x405 PUSH2 0x13EF JUMP JUMPDEST JUMPDEST PUSH1 0x20 MUL PUSH1 0x20 ADD ADD DUP2 DUP2 MSTORE POP POP PUSH1 0x9 DUP2 PUSH1 0x9 DUP2 MLOAD DUP2 LT PUSH2 0x428 JUMPI PUSH2 0x427 PUSH2 0x13EF JUMP JUMPDEST JUMPDEST PUSH1 0x20 MUL PUSH1 0x20 ADD ADD DUP2 DUP2 MSTORE POP POP PUSH1 0x5 DUP2 PUSH1 0xA DUP2 MLOAD DUP2 LT PUSH2 0x44A JUMPI PUSH2 0x449 PUSH2 0x13EF JUMP JUMPDEST JUMPDEST PUSH1 0x20 MUL PUSH1 0x20 ADD ADD DUP2 DUP2 MSTORE POP POP PUSH1 0x4 DUP2 PUSH1 0xB DUP2 MLOAD DUP2 LT PUSH2 0x46C JUMPI PUSH2 0x46B PUSH2 0x13EF JUMP JUMPDEST JUMPDEST PUSH1 0x20 MUL PUSH1 0x20 ADD ADD DUP2 DUP2 MSTORE POP POP PUSH1 0x1 DUP2 PUSH1 0xC DUP2 MLOAD DUP2 LT PUSH2 0x48E JUMPI PUSH2 0x48D PUSH2 0x13EF JUMP JUMPDEST JUMPDEST PUSH1 0x20 MUL PUSH1 0x20 ADD ADD DUP2 DUP2 MSTORE POP POP PUSH0 PUSH1 0xD PUSH8 0xFFFFFFFFFFFFFFFF DUP2 GT ISZERO PUSH2 0x4B6 JUMPI PUSH2 0x4B5 PUSH2 0xF13 JUMP JUMPDEST JUMPDEST PUSH1 0x40 MLOAD SWAP1 DUP1 DUP3 MSTORE DUP1 PUSH1 0x20 MUL PUSH1 0x20 ADD DUP3 ADD PUSH1 0x40 MSTORE DUP1 ISZERO PUSH2 0x4E9 JUMPI DUP2 PUSH1 0x20 ADD JUMPDEST PUSH1 0x60 DUP2 MSTORE PUSH1 0x20 ADD SWAP1 PUSH1 0x1 SWAP1 SUB SWAP1 DUP2 PUSH2 0x4D4 JUMPI SWAP1 POP JUMPDEST POP SWAP1 POP PUSH1 0x40 MLOAD DUP1 PUSH1 0x40 ADD PUSH1 0x40 MSTORE DUP1 PUSH1 0x1 DUP2 MSTORE PUSH1 0x20 ADD PUSH32 0x4D00000000000000000000000000000000000000000000000000000000000000 DUP2 MSTORE POP DUP2 PUSH0 DUP2 MLOAD DUP2 LT PUSH2 0x535 JUMPI PUSH2 0x534 PUSH2 0x13EF JUMP JUMPDEST JUMPDEST PUSH1 0x20 MUL PUSH1 0x20 ADD ADD DUP2 SWAP1 MSTORE POP PUSH1 0x40 MLOAD DUP1 PUSH1 0x40 ADD PUSH1 0x40 MSTORE DUP1 PUSH1 0x2 DUP2 MSTORE PUSH1 0x20 ADD PUSH32 0x434D000000000000000000000000000000000000000000000000000000000000 DUP2 MSTORE POP DUP2 PUSH1 0x1 DUP2 MLOAD DUP2 LT PUSH2 0x58A JUMPI PUSH2 0x589 PUSH2 0x13EF JUMP JUMPDEST JUMPDEST PUSH1 0x20 MUL PUSH1 0x20 ADD ADD DUP2 SWAP1 MSTORE POP PUSH1 0x40 MLOAD DUP1 PUSH1 0x40 ADD PUSH1 0x40 MSTORE DUP1 PUSH1 0x1 DUP2 MSTORE PUSH1 0x20 ADD PUSH32 0x4400000000000000000000000000000000000000000000000000000000000000 DUP2 MSTORE POP DUP2 PUSH1 0x2 DUP2 MLOAD DUP2 LT PUSH2 0x5DF JUMPI PUSH2 0x5DE PUSH2 0x13EF JUMP JUMPDEST JUMPDEST PUSH1 0x20 MUL PUSH1 0x20 ADD ADD DUP2 SWAP1 MSTORE POP PUSH1 0x40 MLOAD DUP1 PUSH1 0x40 ADD PUSH1 0x40 MSTORE DUP1 PUSH1 0x2 DUP2 MSTORE PUSH1 0x20 ADD PUSH32 0x4344000000000000000000000000000000000000000000000000000000000000 DUP2 MSTORE POP DUP2 PUSH1 0x3 DUP2 MLOAD DUP2 LT PUSH2 0x634 JUMPI PUSH2 0x633 PUSH2 0x13EF JUMP JUMPDEST JUMPDEST PUSH1 0x20 MUL PUSH1 0x20 ADD ADD DUP2 SWAP1 MSTORE POP PUSH1 0x40 MLOAD DUP1 PUSH1 0x40 ADD PUSH1 0x40 MSTORE DUP1 PUSH1 0x1 DUP2 MSTORE PUSH1 0x20 ADD PUSH32 0x4300000000000000000000000000000000000000000000000000000000000000 DUP2 MSTORE POP DUP2 PUSH1 0x4 DUP2 MLOAD DUP2 LT PUSH2 0x689 JUMPI PUSH2 0x688 PUSH2 0x13EF JUMP JUMPDEST JUMPDEST PUSH1 0x20 MUL PUSH1 0x20 ADD ADD DUP2 SWAP1 MSTORE POP PUSH1 0x40 MLOAD DUP1 PUSH1 0x40 ADD PUSH1 0x40 MSTORE DUP1 PUSH1 0x2 DUP2 MSTORE PUSH1 0x20 ADD PUSH32 0x5843000000000000000000000000000000000000000000000000000000000000 DUP2 MSTORE POP DUP2 PUSH1 0x5 DUP2 MLOAD DUP2 LT PUSH2 0x6DE JUMPI PUSH2 0x6DD PUSH2 0x13EF JUMP JUMPDEST JUMPDEST PUSH1 0x20 MUL PUSH1 0x20 ADD ADD DUP2 SWAP1 MSTORE POP PUSH1 0x40 MLOAD DUP1 PUSH1 0x40 ADD PUSH1 0x40 MSTORE DUP1 PUSH1 0x1 DUP2 MSTORE PUSH1 0x20 ADD PUSH32 0x4C00000000000000000000000000000000000000000000000000000000000000 DUP2 MSTORE POP DUP2 PUSH1 0x6 DUP2 MLOAD DUP2 LT PUSH2 0x733 JUMPI PUSH2 0x732 PUSH2 0x13EF JUMP JUMPDEST JUMPDEST PUSH1 0x20 MUL PUSH1 0x20 ADD ADD DUP2 SWAP1 MSTORE POP PUSH1 0x40 MLOAD DUP1 PUSH1 0x40 ADD PUSH1 0x40 MSTORE DUP1 PUSH1 0x2 DUP2 MSTORE PUSH1 0x20 ADD PUSH32 0x584C000000000000000000000000000000000000000000000000000000000000 DUP2 MSTORE POP DUP2 PUSH1 0x7 DUP2 MLOAD DUP2 LT PUSH2 0x788 JUMPI PUSH2 0x787 PUSH2 0x13EF JUMP JUMPDEST JUMPDEST PUSH1 0x20 MUL PUSH1 0x20 ADD ADD DUP2 SWAP1 MSTORE POP PUSH1 0x40 MLOAD DUP1 PUSH1 0x40 ADD PUSH1 0x40 MSTORE DUP1 PUSH1 0x1 DUP2 MSTORE PUSH1 0x20 ADD PUSH32 0x5800000000000000000000000000000000000000000000000000000000000000 DUP2 MSTORE POP DUP2 PUSH1 0x8 DUP2 MLOAD DUP2 LT PUSH2 0x7DD JUMPI PUSH2 0x7DC PUSH2 0x13EF JUMP JUMPDEST JUMPDEST PUSH1 0x20 MUL PUSH1 0x20 ADD ADD DUP2 SWAP1 MSTORE POP PUSH1 0x40 MLOAD DUP1 PUSH1 0x40 ADD PUSH1 0x40 MSTORE DUP1 PUSH1 0x2 DUP2 MSTORE PUSH1 0x20 ADD PUSH32 0x4958000000000000000000000000000000000000000000000000000000000000 DUP2 MSTORE POP DUP2 PUSH1 0x9 DUP2 MLOAD DUP2 LT PUSH2 0x832 JUMPI PUSH2 0x831 PUSH2 0x13EF JUMP JUMPDEST JUMPDEST PUSH1 0x20 MUL PUSH1 0x20 ADD ADD DUP2 SWAP1 MSTORE POP PUSH1 0x40 MLOAD DUP1 PUSH1 0x40 ADD PUSH1 0x40 MSTORE DUP1 PUSH1 0x1 DUP2 MSTORE PUSH1 0x20 ADD PUSH32 0x5600000000000000000000000000000000000000000000000000000000000000 DUP2 MSTORE POP DUP2 PUSH1 0xA DUP2 MLOAD DUP2 LT PUSH2 0x887 JUMPI PUSH2 0x886 PUSH2 0x13EF JUMP JUMPDEST JUMPDEST PUSH1 0x20 MUL PUSH1 0x20 ADD ADD DUP2 SWAP1 MSTORE POP PUSH1 0x40 MLOAD DUP1 PUSH1 0x40 ADD PUSH1 0x40 MSTORE DUP1 PUSH1 0x2 DUP2 MSTORE PUSH1 0x20 ADD PUSH32 0x4956000000000000000000000000000000000000000000000000000000000000 DUP2 MSTORE POP DUP2 PUSH1 0xB DUP2 MLOAD DUP2 LT PUSH2 0x8DC JUMPI PUSH2 0x8DB PUSH2 0x13EF JUMP JUMPDEST JUMPDEST PUSH1 0x20 MUL PUSH1 0x20 ADD ADD DUP2 SWAP1 MSTORE POP PUSH1 0x40 MLOAD DUP1 PUSH1 0x40 ADD PUSH1 0x40 MSTORE DUP1 PUSH1 0x1 DUP2 MSTORE PUSH1 0x20 ADD PUSH32 0x4900000000000000000000000000000000000000000000000000000000000000 DUP2 MSTORE POP DUP2 PUSH1 0xC DUP2 MLOAD DUP2 LT PUSH2 0x931 JUMPI PUSH2 0x930 PUSH2 0x13EF JUMP JUMPDEST JUMPDEST PUSH1 0x20 MUL PUSH1 0x20 ADD ADD DUP2 SWAP1 MSTORE POP PUSH0 PUSH1 0x40 MLOAD DUP1 PUSH1 0x20 ADD PUSH1 0x40 MSTORE DUP1 PUSH0 DUP2 MSTORE POP SWAP1 POP PUSH0 PUSH0 SWAP1 POP JUMPDEST DUP4 MLOAD DUP2 LT ISZERO PUSH2 0x9FE JUMPI JUMPDEST DUP6 DUP5 DUP3 DUP2 MLOAD DUP2 LT PUSH2 0x971 JUMPI PUSH2 0x970 PUSH2 0x13EF JUMP JUMPDEST JUMPDEST PUSH1 0x20 MUL PUSH1 0x20 ADD ADD MLOAD GT PUSH2 0x9E9 JUMPI DUP2 DUP4 DUP3 DUP2 MLOAD DUP2 LT PUSH2 0x992 JUMPI PUSH2 0x991 PUSH2 0x13EF JUMP JUMPDEST JUMPDEST PUSH1 0x20 MUL PUSH1 0x20 ADD ADD MLOAD PUSH1 0x40 MLOAD PUSH1 0x20 ADD PUSH2 0x9AB SWAP3 SWAP2 SWAP1 PUSH2 0x1544 JUMP JUMPDEST PUSH1 0x40 MLOAD PUSH1 0x20 DUP2 DUP4 SUB SUB DUP2 MSTORE SWAP1 PUSH1 0x40 MSTORE SWAP2 POP DUP4 DUP2 DUP2 MLOAD DUP2 LT PUSH2 0x9CF JUMPI PUSH2 0x9CE PUSH2 0x13EF JUMP JUMPDEST JUMPDEST PUSH1 0x20 MUL PUSH1 0x20 ADD ADD MLOAD DUP7 PUSH2 0x9E2 SWAP2 SWAP1 PUSH2 0x1449 JUMP JUMPDEST SWAP6 POP PUSH2 0x95D JUMP JUMPDEST PUSH0 DUP7 SUB ISZERO PUSH2 0x9FE JUMPI DUP1 DUP1 PUSH1 0x1 ADD SWAP2 POP POP PUSH2 0x953 JUMP JUMPDEST POP DUP1 SWAP4 POP POP POP POP SWAP2 SWAP1 POP JUMP JUMPDEST PUSH0 PUSH0 PUSH0 SWAP1 POP PUSH0 DUP5 MLOAD SWAP1 POP JUMPDEST DUP1 DUP3 LT ISZERO PUSH2 0xA70 JUMPI PUSH0 PUSH1 0x1 DUP3 DUP5 PUSH2 0xA2C SWAP2 SWAP1 PUSH2 0x1567 JUMP JUMPDEST SWAP1 SHR SWAP1 POP DUP5 DUP7 DUP3 DUP2 MLOAD DUP2 LT PUSH2 0xA44 JUMPI PUSH2 0xA43 PUSH2 0x13EF JUMP JUMPDEST JUMPDEST PUSH1 0x20 MUL PUSH1 0x20 ADD ADD MLOAD GT ISZERO PUSH2 0xA66 JUMPI PUSH1 0x1 DUP2 PUSH2 0xA5F SWAP2 SWAP1 PUSH2 0x1567 JUMP JUMPDEST SWAP3 POP PUSH2 0xA6A JUMP JUMPDEST DUP1 SWAP2 POP JUMPDEST POP PUSH2 0xA15 JUMP JUMPDEST DUP5 MLOAD DUP3 LT DUP1 ISZERO PUSH2 0xA99 JUMPI POP DUP4 DUP6 DUP4 DUP2 MLOAD DUP2 LT PUSH2 0xA8F JUMPI PUSH2 0xA8E PUSH2 0x13EF JUMP JUMPDEST JUMPDEST PUSH1 0x20 MUL PUSH1 0x20 ADD ADD MLOAD EQ JUMPDEST ISZERO PUSH2 0xAA8 JUMPI DUP2 SWAP3 POP POP POP PUSH2 0xACE JUMP JUMPDEST PUSH32 0xFFFFFFFFFFFFFFFFFFFFFFFFFFFFFFFFFFFFFFFFFFFFFFFFFFFFFFFFFFFFFFFF SWAP3 POP POP POP JUMPDEST SWAP3 SWAP2 POP POP JUMP JUMPDEST PUSH0 PUSH0 PUSH0 PUSH0 SWAP1 POP PUSH0 PUSH1 0x40 MLOAD DUP1 PUSH1 0x40 ADD PUSH1 0x40 MSTORE DUP1 PUSH1 0x7 DUP2 MSTORE PUSH1 0x20 ADD PUSH32 0x4344494C4D565800000000000000000000000000000000000000000000000000 DUP2 MSTORE POP SWAP1 POP PUSH0 PUSH1 0x40 MLOAD DUP1 PUSH1 0xE0 ADD PUSH1 0x40 MSTORE DUP1 PUSH1 0x64 PUSH2 0xFFFF AND DUP2 MSTORE PUSH1 0x20 ADD PUSH2 0x1F4 PUSH2 0xFFFF AND DUP2 MSTORE PUSH1 0x20 ADD PUSH1 0x1 PUSH2 0xFFFF AND DUP2 MSTORE PUSH1 0x20 ADD PUSH1 0x32 PUSH2 0xFFFF AND DUP2 MSTORE PUSH1 0x20 ADD PUSH2 0x3E8 PUSH2 0xFFFF AND DUP2 MSTORE PUSH1 0x20 ADD PUSH1 0x5 PUSH2 0xFFFF AND DUP2 MSTORE PUSH1 0x20 ADD PUSH1 0xA PUSH2 0xFFFF AND DUP2 MSTORE POP SWAP1 POP PUSH0 DUP7 MLOAD SWAP1 POP PUSH0 DUP8 SWAP1 POP PUSH0 DUP3 SWAP1 POP JUMPDEST PUSH0 DUP2 GT ISZERO PUSH2 0xC08 JUMPI DUP1 PUSH2 0xB8E SWAP1 PUSH2 0x159A JUMP JUMPDEST SWAP1 POP PUSH0 DUP5 PUSH2 0xBB9 DUP8 DUP6 DUP6 DUP2 MLOAD DUP2 LT PUSH2 0xBA9 JUMPI PUSH2 0xBA8 PUSH2 0x13EF JUMP JUMPDEST JUMPDEST PUSH1 0x20 ADD ADD MLOAD PUSH1 0xF8 SHR PUSH1 0xF8 SHL PUSH2 0xE46 JUMP JUMPDEST PUSH1 0x7 DUP2 LT PUSH2 0xBCA JUMPI PUSH2 0xBC9 PUSH2 0x13EF JUMP JUMPDEST JUMPDEST PUSH1 0x20 MUL ADD MLOAD PUSH2 0xFFFF AND SWAP1 POP DUP7 DUP2 LT ISZERO PUSH2 0xBF0 JUMPI DUP1 DUP9 PUSH2 0xBE9 SWAP2 SWAP1 PUSH2 0x1449 JUMP JUMPDEST SWAP8 POP PUSH2 0xBFF JUMP JUMPDEST DUP1 DUP9 PUSH2 0xBFC SWAP2 SWAP1 PUSH2 0x1567 JUMP JUMPDEST SWAP8 POP JUMPDEST DUP1 SWAP7 POP POP PUSH2 0xB7C JUMP JUMPDEST POP DUP6 SWAP7 POP POP POP POP POP POP POP SWAP2 SWAP1 POP JUMP JUMPDEST PUSH1 0x60 PUSH0 DUP4 MLOAD SWAP1 POP PUSH0 DUP4 MLOAD SWAP1 POP DUP1 DUP3 PUSH2 0xC2F SWAP2 SWAP1 PUSH2 0x1567 JUMP JUMPDEST PUSH8 0xFFFFFFFFFFFFFFFF DUP2 GT ISZERO PUSH2 0xC48 JUMPI PUSH2 0xC47 PUSH2 0xF13 JUMP JUMPDEST JUMPDEST PUSH1 0x40 MLOAD SWAP1 DUP1 DUP3 MSTORE DUP1 PUSH1 0x20 MUL PUSH1 0x20 ADD DUP3 ADD PUSH1 0x40 MSTORE DUP1 ISZERO PUSH2 0xC76 JUMPI DUP2 PUSH1 0x20 ADD PUSH1 0x20 DUP3 MUL DUP1 CALLDATASIZE DUP4 CALLDATACOPY DUP1 DUP3 ADD SWAP2 POP POP SWAP1 POP JUMPDEST POP SWAP3 POP PUSH0 PUSH0 PUSH0 JUMPDEST DUP5 DUP4 LT DUP1 ISZERO PUSH2 0xC8B JUMPI POP DUP4 DUP3 LT JUMPDEST ISZERO PUSH2 0xD7B JUMPI DUP7 DUP3 DUP2 MLOAD DUP2 LT PUSH2 0xCA3 JUMPI PUSH2 0xCA2 PUSH2 0x13EF JUMP JUMPDEST JUMPDEST PUSH1 0x20 MUL PUSH1 0x20 ADD ADD MLOAD DUP9 DUP5 DUP2 MLOAD DUP2 LT PUSH2 0xCBE JUMPI PUSH2 0xCBD PUSH2 0x13EF JUMP JUMPDEST JUMPDEST PUSH1 0x20 MUL PUSH1 0x20 ADD ADD MLOAD LT ISZERO PUSH2 0xD23 JUMPI DUP8 DUP4 DUP1 PUSH2 0xCD8 SWAP1 PUSH2 0x15C1 JUMP JUMPDEST SWAP5 POP DUP2 MLOAD DUP2 LT PUSH2 0xCEB JUMPI PUSH2 0xCEA PUSH2 0x13EF JUMP JUMPDEST JUMPDEST PUSH1 0x20 MUL PUSH1 0x20 ADD ADD MLOAD DUP7 DUP3 DUP1 PUSH2 0xCFF SWAP1 PUSH2 0x15C1 JUMP JUMPDEST SWAP4 POP DUP2 MLOAD DUP2 LT PUSH2 0xD12 JUMPI PUSH2 0xD11 PUSH2 0x13EF JUMP JUMPDEST JUMPDEST PUSH1 0x20 MUL PUSH1 0x20 ADD ADD DUP2 DUP2 MSTORE POP POP PUSH2 0xD76 JUMP JUMPDEST DUP7 DUP3 DUP1 PUSH2 0xD2F SWAP1 PUSH2 0x15C1 JUMP JUMPDEST SWAP4 POP DUP2 MLOAD DUP2 LT PUSH2 0xD42 JUMPI PUSH2 0xD41 PUSH2 0x13EF JUMP JUMPDEST JUMPDEST PUSH1 0x20 MUL PUSH1 0x20 ADD ADD MLOAD DUP7 DUP3 DUP1 PUSH2 0xD56 SWAP1 PUSH2 0x15C1 JUMP JUMPDEST SWAP4 POP DUP2 MLOAD DUP2 LT PUSH2 0xD69 JUMPI PUSH2 0xD68 PUSH2 0x13EF JUMP JUMPDEST JUMPDEST PUSH1 0x20 MUL PUSH1 0x20 ADD ADD DUP2 DUP2 MSTORE POP POP JUMPDEST PUSH2 0xC7D JUMP JUMPDEST JUMPDEST DUP5 DUP4 LT ISZERO PUSH2 0xDDB JUMPI DUP8 DUP4 DUP1 PUSH2 0xD90 SWAP1 PUSH2 0x15C1 JUMP JUMPDEST SWAP5 POP DUP2 MLOAD DUP2 LT PUSH2 0xDA3 JUMPI PUSH2 0xDA2 PUSH2 0x13EF JUMP JUMPDEST JUMPDEST PUSH1 0x20 MUL PUSH1 0x20 ADD ADD MLOAD DUP7 DUP3 DUP1 PUSH2 0xDB7 SWAP1 PUSH2 0x15C1 JUMP JUMPDEST SWAP4 POP DUP2 MLOAD DUP2 LT PUSH2 0xDCA JUMPI PUSH2 0xDC9 PUSH2 0x13EF JUMP JUMPDEST JUMPDEST PUSH1 0x20 MUL PUSH1 0x20 ADD ADD DUP2 DUP2 MSTORE POP POP PUSH2 0xD7C JUMP JUMPDEST JUMPDEST DUP4 DUP3 LT ISZERO PUSH2 0xE3B JUMPI DUP7 DUP3 DUP1 PUSH2 0xDF0 SWAP1 PUSH2 0x15C1 JUMP JUMPDEST SWAP4 POP DUP2 MLOAD DUP2 LT PUSH2 0xE03 JUMPI PUSH2 0xE02 PUSH2 0x13EF JUMP JUMPDEST JUMPDEST PUSH1 0x20 MUL PUSH1 0x20 ADD ADD MLOAD DUP7 DUP3 DUP1 PUSH2 0xE17 SWAP1 PUSH2 0x15C1 JUMP JUMPDEST SWAP4 POP DUP2 MLOAD DUP2 LT PUSH2 0xE2A JUMPI PUSH2 0xE29 PUSH2 0x13EF JUMP JUMPDEST JUMPDEST PUSH1 0x20 MUL PUSH1 0x20 ADD ADD DUP2 DUP2 MSTORE POP POP PUSH2 0xDDC JUMP JUMPDEST POP POP POP POP POP SWAP3 SWAP2 POP POP JUMP JUMPDEST PUSH0 PUSH0 DUP4 SWAP1 POP PUSH0 DUP2 MLOAD SWAP1 POP PUSH0 PUSH0 SWAP1 POP JUMPDEST DUP2 DUP2 LT ISZERO PUSH2 0xEDD JUMPI DUP3 DUP2 DUP2 MLOAD DUP2 LT PUSH2 0xE70 JUMPI PUSH2 0xE6F PUSH2 0x13EF JUMP JUMPDEST JUMPDEST PUSH1 0x20 ADD ADD MLOAD PUSH1 0xF8 SHR PUSH1 0xF8 SHL PUSH31 0xFFFFFFFFFFFFFFFFFFFFFFFFFFFFFFFFFFFFFFFFFFFFFFFFFFFFFFFFFFFFFF NOT AND DUP6 PUSH31 0xFFFFFFFFFFFFFFFFFFFFFFFFFFFFFFFFFFFFFFFFFFFFFFFFFFFFFFFFFFFFFF NOT AND SUB PUSH2 0xED0 JUMPI DUP1 SWAP4 POP POP POP POP PUSH2 0xEE4 JUMP JUMPDEST DUP1 DUP1 PUSH1 0x1 ADD SWAP2 POP POP PUSH2 0xE55 JUMP JUMPDEST POP PUSH0 SWAP3 POP POP POP JUMPDEST SWAP3 SWAP2 POP POP JUMP JUMPDEST PUSH0 PUSH1 0x40 MLOAD SWAP1 POP SWAP1 JUMP JUMPDEST PUSH0 PUSH0 REVERT JUMPDEST PUSH0 PUSH0 REVERT JUMPDEST PUSH0 PUSH0 REVERT JUMPDEST PUSH0 PUSH0 REVERT JUMPDEST PUSH0 PUSH1 0x1F NOT PUSH1 0x1F DUP4 ADD AND SWAP1 POP SWAP2 SWAP1 POP JUMP JUMPDEST PUSH32 0x4E487B7100000000000000000000000000000000000000000000000000000000 PUSH0 MSTORE PUSH1 0x41 PUSH1 0x4 MSTORE PUSH1 0x24 PUSH0 REVERT JUMPDEST PUSH2 0xF49 DUP3 PUSH2 0xF03 JUMP JUMPDEST DUP2 ADD DUP2 DUP2 LT PUSH8 0xFFFFFFFFFFFFFFFF DUP3 GT OR ISZERO PUSH2 0xF68 JUMPI PUSH2 0xF67 PUSH2 0xF13 JUMP JUMPDEST JUMPDEST DUP1 PUSH1 0x40 MSTORE POP POP POP JUMP JUMPDEST PUSH0 PUSH2 0xF7A PUSH2 0xEEA JUMP JUMPDEST SWAP1 POP PUSH2 0xF86 DUP3 DUP3 PUSH2 0xF40 JUMP JUMPDEST SWAP2 SWAP1 POP JUMP JUMPDEST PUSH0 PUSH8 0xFFFFFFFFFFFFFFFF DUP3 GT ISZERO PUSH2 0xFA5 JUMPI PUSH2 0xFA4 PUSH2 0xF13 JUMP JUMPDEST JUMPDEST PUSH2 0xFAE DUP3 PUSH2 0xF03 JUMP JUMPDEST SWAP1 POP PUSH1 0x20 DUP2 ADD SWAP1 POP SWAP2 SWAP1 POP JUMP JUMPDEST DUP3 DUP2 DUP4 CALLDATACOPY PUSH0 DUP4 DUP4 ADD MSTORE POP POP POP JUMP JUMPDEST PUSH0 PUSH2 0xFDB PUSH2 0xFD6 DUP5 PUSH2 0xF8B JUMP JUMPDEST PUSH2 0xF71 JUMP JUMPDEST SWAP1 POP DUP3 DUP2 MSTORE PUSH1 0x20 DUP2 ADD DUP5 DUP5 DUP5 ADD GT ISZERO PUSH2 0xFF7 JUMPI PUSH2 0xFF6 PUSH2 0xEFF JUMP JUMPDEST JUMPDEST PUSH2 0x1002 DUP5 DUP3 DUP6 PUSH2 0xFBB JUMP JUMPDEST POP SWAP4 SWAP3 POP POP POP JUMP JUMPDEST PUSH0 DUP3 PUSH1 0x1F DUP4 ADD SLT PUSH2 0x101E JUMPI PUSH2 0x101D PUSH2 0xEFB JUMP JUMPDEST JUMPDEST DUP2 CALLDATALOAD PUSH2 0x102E DUP5 DUP3 PUSH1 0x20 DUP7 ADD PUSH2 0xFC9 JUMP JUMPDEST SWAP2 POP POP SWAP3 SWAP2 POP POP JUMP JUMPDEST PUSH0 PUSH1 0x20 DUP3 DUP5 SUB SLT ISZERO PUSH2 0x104C JUMPI PUSH2 0x104B PUSH2 0xEF3 JUMP JUMPDEST JUMPDEST PUSH0 DUP3 ADD CALLDATALOAD PUSH8 0xFFFFFFFFFFFFFFFF DUP2 GT ISZERO PUSH2 0x1069 JUMPI PUSH2 0x1068 PUSH2 0xEF7 JUMP JUMPDEST JUMPDEST PUSH2 0x1075 DUP5 DUP3 DUP6 ADD PUSH2 0x100A JUMP JUMPDEST SWAP2 POP POP SWAP3 SWAP2 POP POP JUMP JUMPDEST PUSH0 DUP2 MLOAD SWAP1 POP SWAP2 SWAP1 POP JUMP JUMPDEST PUSH0 DUP3 DUP3 MSTORE PUSH1 0x20 DUP3 ADD SWAP1 POP SWAP3 SWAP2 POP POP JUMP JUMPDEST DUP3 DUP2 DUP4 MCOPY PUSH0 DUP4 DUP4 ADD MSTORE POP POP POP JUMP JUMPDEST PUSH0 PUSH2 0x10B0 DUP3 PUSH2 0x107E JUMP JUMPDEST PUSH2 0x10BA DUP2 DUP6 PUSH2 0x1088 JUMP JUMPDEST SWAP4 POP PUSH2 0x10CA DUP2 DUP6 PUSH1 0x20 DUP7 ADD PUSH2 0x1098 JUMP JUMPDEST PUSH2 0x10D3 DUP2 PUSH2 0xF03 JUMP JUMPDEST DUP5 ADD SWAP2 POP POP SWAP3 SWAP2 POP POP JUMP JUMPDEST PUSH0 PUSH1 0x20 DUP3 ADD SWAP1 POP DUP2 DUP2 SUB PUSH0 DUP4 ADD MSTORE PUSH2 0x10F6 DUP2 DUP5 PUSH2 0x10A6 JUMP JUMPDEST SWAP1 POP SWAP3 SWAP2 POP POP JUMP JUMPDEST PUSH0 DUP2 SWAP1 POP SWAP2 SWAP1 POP JUMP JUMPDEST PUSH2 0x1110 DUP2 PUSH2 0x10FE JUMP JUMPDEST DUP2 EQ PUSH2 0x111A JUMPI PUSH0 PUSH0 REVERT JUMPDEST POP JUMP JUMPDEST PUSH0 DUP2 CALLDATALOAD SWAP1 POP PUSH2 0x112B DUP2 PUSH2 0x1107 JUMP JUMPDEST SWAP3 SWAP2 POP POP JUMP JUMPDEST PUSH0 PUSH1 0x20 DUP3 DUP5 SUB SLT ISZERO PUSH2 0x1146 JUMPI PUSH2 0x1145 PUSH2 0xEF3 JUMP JUMPDEST JUMPDEST PUSH0 PUSH2 0x1153 DUP5 DUP3 DUP6 ADD PUSH2 0x111D JUMP JUMPDEST SWAP2 POP POP SWAP3 SWAP2 POP POP JUMP JUMPDEST PUSH0 PUSH8 0xFFFFFFFFFFFFFFFF DUP3 GT ISZERO PUSH2 0x1176 JUMPI PUSH2 0x1175 PUSH2 0xF13 JUMP JUMPDEST JUMPDEST PUSH1 0x20 DUP3 MUL SWAP1 POP PUSH1 0x20 DUP2 ADD SWAP1 POP SWAP2 SWAP1 POP JUMP JUMPDEST PUSH0 PUSH0 REVERT JUMPDEST PUSH0 PUSH2 0x119D PUSH2 0x1198 DUP5 PUSH2 0x115C JUMP JUMPDEST PUSH2 0xF71 JUMP JUMPDEST SWAP1 POP DUP1 DUP4 DUP3 MSTORE PUSH1 0x20 DUP3 ADD SWAP1 POP PUSH1 0x20 DUP5 MUL DUP4 ADD DUP6 DUP2 GT ISZERO PUSH2 0x11C0 JUMPI PUSH2 0x11BF PUSH2 0x1187 JUMP JUMPDEST JUMPDEST DUP4 JUMPDEST DUP2 DUP2 LT ISZERO PUSH2 0x11E9 JUMPI DUP1 PUSH2 0x11D5 DUP9 DUP3 PUSH2 0x111D JUMP JUMPDEST DUP5 MSTORE PUSH1 0x20 DUP5 ADD SWAP4 POP POP PUSH1 0x20 DUP2 ADD SWAP1 POP PUSH2 0x11C2 JUMP JUMPDEST POP POP POP SWAP4 SWAP3 POP POP POP JUMP JUMPDEST PUSH0 DUP3 PUSH1 0x1F DUP4 ADD SLT PUSH2 0x1207 JUMPI PUSH2 0x1206 PUSH2 0xEFB JUMP JUMPDEST JUMPDEST DUP2 CALLDATALOAD PUSH2 0x1217 DUP5 DUP3 PUSH1 0x20 DUP7 ADD PUSH2 0x118B JUMP JUMPDEST SWAP2 POP POP SWAP3 SWAP2 POP POP JUMP JUMPDEST PUSH0 PUSH0 PUSH1 0x40 DUP4 DUP6 SUB SLT ISZERO PUSH2 0x1236 JUMPI PUSH2 0x1235 PUSH2 0xEF3 JUMP JUMPDEST JUMPDEST PUSH0 DUP4 ADD CALLDATALOAD PUSH8 0xFFFFFFFFFFFFFFFF DUP2 GT ISZERO PUSH2 0x1253 JUMPI PUSH2 0x1252 PUSH2 0xEF7 JUMP JUMPDEST JUMPDEST PUSH2 0x125F DUP6 DUP3 DUP7 ADD PUSH2 0x11F3 JUMP JUMPDEST SWAP3 POP POP PUSH1 0x20 PUSH2 0x1270 DUP6 DUP3 DUP7 ADD PUSH2 0x111D JUMP JUMPDEST SWAP2 POP POP SWAP3 POP SWAP3 SWAP1 POP JUMP JUMPDEST PUSH2 0x1283 DUP2 PUSH2 0x10FE JUMP JUMPDEST DUP3 MSTORE POP POP JUMP JUMPDEST PUSH0 PUSH1 0x20 DUP3 ADD SWAP1 POP PUSH2 0x129C PUSH0 DUP4 ADD DUP5 PUSH2 0x127A JUMP JUMPDEST SWAP3 SWAP2 POP POP JUMP JUMPDEST PUSH0 PUSH0 PUSH1 0x40 DUP4 DUP6 SUB SLT ISZERO PUSH2 0x12B8 JUMPI PUSH2 0x12B7 PUSH2 0xEF3 JUMP JUMPDEST JUMPDEST PUSH0 DUP4 ADD CALLDATALOAD PUSH8 0xFFFFFFFFFFFFFFFF DUP2 GT ISZERO PUSH2 0x12D5 JUMPI PUSH2 0x12D4 PUSH2 0xEF7 JUMP JUMPDEST JUMPDEST PUSH2 0x12E1 DUP6 DUP3 DUP7 ADD PUSH2 0x11F3 JUMP JUMPDEST SWAP3 POP POP PUSH1 0x20 DUP4 ADD CALLDATALOAD PUSH8 0xFFFFFFFFFFFFFFFF DUP2 GT ISZERO PUSH2 0x1302 JUMPI PUSH2 0x1301 PUSH2 0xEF7 JUMP JUMPDEST JUMPDEST PUSH2 0x130E DUP6 DUP3 DUP7 ADD PUSH2 0x11F3 JUMP JUMPDEST SWAP2 POP POP SWAP3 POP SWAP3 SWAP1 POP JUMP JUMPDEST PUSH0 DUP2 MLOAD SWAP1 POP SWAP2 SWAP1 POP JUMP JUMPDEST PUSH0 DUP3 DUP3 MSTORE PUSH1 0x20 DUP3 ADD SWAP1 POP SWAP3 SWAP2 POP POP JUMP JUMPDEST PUSH0 DUP2 SWAP1 POP PUSH1 0x20 DUP3 ADD SWAP1 POP SWAP2 SWAP1 POP JUMP JUMPDEST PUSH2 0x134A DUP2 PUSH2 0x10FE JUMP JUMPDEST DUP3 MSTORE POP POP JUMP JUMPDEST PUSH0 PUSH2 0x135B DUP4 DUP4 PUSH2 0x1341 JUMP JUMPDEST PUSH1 0x20 DUP4 ADD SWAP1 POP SWAP3 SWAP2 POP POP JUMP JUMPDEST PUSH0 PUSH1 0x20 DUP3 ADD SWAP1 POP SWAP2 SWAP1 POP JUMP JUMPDEST PUSH0 PUSH2 0x137D DUP3 PUSH2 0x1318 JUMP JUMPDEST PUSH2 0x1387 DUP2 DUP6 PUSH2 0x1322 JUMP JUMPDEST SWAP4 POP PUSH2 0x1392 DUP4 PUSH2 0x1332 JUMP JUMPDEST DUP1 PUSH0 JUMPDEST DUP4 DUP2 LT ISZERO PUSH2 0x13C2 JUMPI DUP2 MLOAD PUSH2 0x13A9 DUP9 DUP3 PUSH2 0x1350 JUMP JUMPDEST SWAP8 POP PUSH2 0x13B4 DUP4 PUSH2 0x1367 JUMP JUMPDEST SWAP3 POP POP PUSH1 0x1 DUP2 ADD SWAP1 POP PUSH2 0x1395 JUMP JUMPDEST POP DUP6 SWAP4 POP POP POP POP SWAP3 SWAP2 POP POP JUMP JUMPDEST PUSH0 PUSH1 0x20 DUP3 ADD SWAP1 POP DUP2 DUP2 SUB PUSH0 DUP4 ADD MSTORE PUSH2 0x13E7 DUP2 DUP5 PUSH2 0x1373 JUMP JUMPDEST SWAP1 POP SWAP3 SWAP2 POP POP JUMP JUMPDEST PUSH32 0x4E487B7100000000000000000000000000000000000000000000000000000000 PUSH0 MSTORE PUSH1 0x32 PUSH1 0x4 MSTORE PUSH1 0x24 PUSH0 REVERT JUMPDEST PUSH32 0x4E487B7100000000000000000000000000000000000000000000000000000000 PUSH0 MSTORE PUSH1 0x11 PUSH1 0x4 MSTORE PUSH1 0x24 PUSH0 REVERT JUMPDEST PUSH0 PUSH2 0x1453 DUP3 PUSH2 0x10FE JUMP JUMPDEST SWAP2 POP PUSH2 0x145E DUP4 PUSH2 0x10FE JUMP JUMPDEST SWAP3 POP DUP3 DUP3 SUB SWAP1 POP DUP2 DUP2 GT ISZERO PUSH2 0x1476 JUMPI PUSH2 0x1475 PUSH2 0x141C JUMP JUMPDEST JUMPDEST SWAP3 SWAP2 POP POP JUMP JUMPDEST PUSH32 0x4E756D626572206D757374206265206265747765656E203120616E6420333939 PUSH0 DUP3 ADD MSTORE PUSH32 0x3900000000000000000000000000000000000000000000000000000000000000 PUSH1 0x20 DUP3 ADD MSTORE POP JUMP JUMPDEST PUSH0 PUSH2 0x14D6 PUSH1 0x21 DUP4 PUSH2 0x1088 JUMP JUMPDEST SWAP2 POP PUSH2 0x14E1 DUP3 PUSH2 0x147C JUMP JUMPDEST PUSH1 0x40 DUP3 ADD SWAP1 POP SWAP2 SWAP1 POP JUMP JUMPDEST PUSH0 PUSH1 0x20 DUP3 ADD SWAP1 POP DUP2 DUP2 SUB PUSH0 DUP4 ADD MSTORE PUSH2 0x1503 DUP2 PUSH2 0x14CA JUMP JUMPDEST SWAP1 POP SWAP2 SWAP1 POP JUMP JUMPDEST PUSH0 DUP2 SWAP1 POP SWAP3 SWAP2 POP POP JUMP JUMPDEST PUSH0 PUSH2 0x151E DUP3 PUSH2 0x107E JUMP JUMPDEST PUSH2 0x1528 DUP2 DUP6 PUSH2 0x150A JUMP JUMPDEST SWAP4 POP PUSH2 0x1538 DUP2 DUP6 PUSH1 0x20 DUP7 ADD PUSH2 0x1098 JUMP JUMPDEST DUP1 DUP5 ADD SWAP2 POP POP SWAP3 SWAP2 POP POP JUMP JUMPDEST PUSH0 PUSH2 0x154F DUP3 DUP6 PUSH2 0x1514 JUMP JUMPDEST SWAP2 POP PUSH2 0x155B DUP3 DUP5 PUSH2 0x1514 JUMP JUMPDEST SWAP2 POP DUP2 SWAP1 POP SWAP4 SWAP3 POP POP POP JUMP JUMPDEST PUSH0 PUSH2 0x1571 DUP3 PUSH2 0x10FE JUMP JUMPDEST SWAP2 POP PUSH2 0x157C DUP4 PUSH2 0x10FE JUMP JUMPDEST SWAP3 POP DUP3 DUP3 ADD SWAP1 POP DUP1 DUP3 GT ISZERO PUSH2 0x1594 JUMPI PUSH2 0x1593 PUSH2 0x141C JUMP JUMPDEST JUMPDEST SWAP3 SWAP2 POP POP JUMP JUMPDEST PUSH0 PUSH2 0x15A4 DUP3 PUSH2 0x10FE JUMP JUMPDEST SWAP2 POP PUSH0 DUP3 SUB PUSH2 0x15B6 JUMPI PUSH2 0x15B5 PUSH2 0x141C JUMP JUMPDEST JUMPDEST PUSH1 0x1 DUP3 SUB SWAP1 POP SWAP2 SWAP1 POP JUMP JUMPDEST PUSH0 PUSH2 0x15CB DUP3 PUSH2 0x10FE JUMP JUMPDEST SWAP2 POP PUSH32 0xFFFFFFFFFFFFFFFFFFFFFFFFFFFFFFFFFFFFFFFFFFFFFFFFFFFFFFFFFFFFFFFF DUP3 SUB PUSH2 0x15FD JUMPI PUSH2 0x15FC PUSH2 0x141C JUMP JUMPDEST JUMPDEST PUSH1 0x1 DUP3 ADD SWAP1 POP SWAP2 SWAP1 POP JUMP INVALID LOG2 PUSH5 0x6970667358 0x22 SLT KECCAK256 0xEA BALANCE 0xD4 PUSH3 0x2EDD9A PUSH30 0xA5A9D7DEC96367B5AFB42D79C870F147319F2473AB4F9F0764736F6C6343 STOP ADDMOD 0x1E STOP CALLER "
				},
				"gasEstimates": {
					"creation": {
						"codeDepositCost": "1138800",
						"executionCost": "1178",
						"totalCost": "1139978"
					},
					"external": {
						"findValueFromArr(uint256[],uint256)": "infinite",
						"intToRoman(uint256)": "infinite",
						"mergeSorted(uint256[],uint256[])": "infinite",
						"reverse(string)": "infinite",
						"romanToInt(string)": "infinite"
					},
					"internal": {
						"strIndexOf(string memory,bytes1)": "infinite"
					}
				},
				"methodIdentifiers": {
					"findValueFromArr(uint256[],uint256)": "31877984",
					"intToRoman(uint256)": "0cbc513a",
					"mergeSorted(uint256[],uint256[])": "d2f145d0",
					"reverse(string)": "064767aa",
					"romanToInt(string)": "cb159dfe"
				}
			},
			"storageLayout": {
				"storage": [],
				"types": null
			},
			"userdoc": {
				"kind": "user",
				"methods": {},
				"version": 1
			}
		}
	}
}